:020000040800F2
:10000000781F0020D5010008911F00082B1E000852
:100010008D1F000899050008BD340008000000008D
:10002000000000000000000000000000072E000893
:1000300025060008000000005F020008612E00088D
:10004000EF010008EF010008EF010008EF010008D0
:10005000EF010008EF010008EF010008EF010008C0
:10006000EF010008EF010008EF010008EF010008B0
:10007000EF010008EF010008EF010008EF010008A0
:10008000EF010008EF010008EF010008EF01000890
:10009000EF010008EF010008EF010008EF01000880
:1000A000EF010008EF010008EF010008EF01000870
:1000B000EF010008EF010008EF010008EF01000860
:1000C000EF010008EF010008EF010008EF01000850
:1000D000EF01000875340008EF010008EF01000887
:1000E000EF010008EF010008EF010008EF01000830
:1000F000EF010008EF010008EF010008EF01000820
:10010000EF010008EF010008EF010008EF0100080F
:10011000EF010008EF010008EF010008EF010008FF
:10012000EF010008EF010008EF010008EF010008EF
:1001300000F002F800F03FF80AA090E8000C8244BA
:100140008344AAF10107DA4501D100F034F8AFF297
:10015000090EBAE80F0013F0010F18BFFB1A43F0A5
:1001600001031847CC360000EC360000103A24BFDB
:1001700078C878C1FAD8520724BF30C830C144BF0C
:1001800004680C607047000000230024002500264E
:10019000103A28BF78C1FBD8520728BF30C148BFEA
:1001A0000B607047642900F0CF80002070471FB5B6
:1001B0001FBD10B510BD00F0B5F91146FFF7F7FFF0
:1001C00003F0BCF900F0D3F903B4FFF7F2FF03BC6E
:1001D00003F082F90948804709480047FEE7FEE737
:1001E000FEE7FEE7FEE7FEE7FEE7FEE7FEE7FEE7E7
:1001F00004480549054A064B704700007D2E00085B
:100200003101000878190020781F0020781B002099
:10021000781B0020EFF3108072B6704780F31088CF
:1002200070471F484FF6FF710170002080F3098866
:100230001C48016881F308881B48012101701B4894
:100240004FF08051016062B6FEE718484FF08051D0
:100250000160704715484FF080510160704772B6D9
:10026000EFF3098028B1203880E8F00F10490968C1
:10027000086000B50F4880475DF804EB0E480F4951
:100280000A7802700A480E490A680260106890E80D
:10029000F00F203080F309884EF0F40E62B67047FC
:1002A00022ED00E0700000204A00002004ED00E094
:1002B00050000020112600083F00002040000020D0
:1002C00058000020704700000FB4044910B503AA7D
:1002D000029800F0F9F810BC5DF814FB1000002043
:1002E0002DE9F0410E460446002020622046E168D8
:1002F000884730B3252805D0D4E901219047206AEA
:10030000401CF2E7E168204600278847050018D026
:10031000A5F14100192802D820354FF40067324674
:10032000294620462760FFF73DFF40B1012804D051
:10033000F61D26F007060836D8E7361DD6E728460C
:10034000DAE7206ABDE8F0812DE9F0410646002495
:1003500010687529314616A510D0AFF3008000282B
:1003600002DA404213A507E031688A0701D512A5D9
:1003700002E0490704D511A5012401E0AFF3008094
:1003800000210A2206F1240709E0B0FBF2FCB0FBD1
:10039000F2F302FB1C00303078541846491C002848
:1003A000F3D123462A463046BDE8F04100F033B889
:1003B000000000002D0000002B00000020000000C5
:1003C0004FF0000200B5134694469646203922BFEE
:1003D000A0E80C50A0E80C50B1F12001BFF4F7AF39
:1003E000090728BFA0E80C5048BF0CC05DF804EB1B
:1003F000890028BF40F8042B08BF704748BF20F889
:10040000022B11F0804F18BF00F8012B7047704786
:100410007047704770472DE9F0470D469946924660
:10042000044600F124080168880604D5E06921F03B
:100430001001216000E00120A84201DD471B00E01F
:100440000027A1697A1902EB0900081AA061207837
:10045000C00602D42046AFF30080002608E0D4E9AD
:1004600001211AF806009047206A401C761C206281
:100470004E45F4DB2078C0060AD52046AFF3008055
:1004800006E0D4E9012130209047206A401C206218
:10049000381EA7F10107F4DC07E0D4E9012118F8C0
:1004A00005009047206A401C2062281EA5F1010526
:1004B000F3DC2046AFF300802078000602D502204E
:1004C000BDE8F0870120FBE7074B70B50D467B4484
:1004D00000F011F80446284600F020F810B14FF063
:1004E000FF3070BD204670BD4F30000001694A1CCE
:1004F00002610878704700B58FB0CDE90131002165
:10050000059105497944CDE9031011466846FFF786
:10051000E7FE0FB000BD0000E5FFFFFF007B00F02D
:1005200080007047754600F02BF8AE46050069461E
:10053000534620F00700854618B020B5FFF758FE57
:10054000BDE820404FF000064FF000074FF00008D4
:100550004FF0000B21F00701AC46ACE8C009ACE855
:10056000C009ACE8C009ACE8C0098D46704710B5B9
:100570000446AFF300802046BDE81040FFF724BEDC
:100580000048704714190020704770477047704743
:10059000704770477047704700BFFEE700B50246DE
:1005A000642A00DD64220A480078012806D1002070
:1005B00002F086FF104602F089FF07E0C2F16401F5
:1005C000C8B202F07DFF642002F080FF00BD000091
:1005D0002100002000B50246642A00DD64220A489A
:1005E0000078012806D1104602F06AFF002002F0D0
:1005F0006DFF07E0642002F063FFC2F16401C8B23E
:1006000002F064FF00BD00002100002010B50421AD
:10061000034801F05DFA0821014801F059FA10BDC4
:10062000B8070020704731B5002400F0AFF9044648
:1006300000BF00F0ABF9001B00998842F9D338BD28
:100640002DE9F847024600240020002584460027B3
:1006500000237BE14FF0010808FA03F4D1F8008091
:1006600008EA0400A0427DD1DFF8ECA2D1F80480B2
:10067000A8EB0A09D0453AD014DCB8F1030F50D0EA
:1006800009DCB8F1000F31D0B8F1010F1CD0B8F17E
:10069000020F49D120E0B8F1110F18D0B8F1120FB4
:1006A00042D11EE0B9F5881F25D006DCB9F5803FA0
:1006B00020D0B9F5801F37D11AE0B9F5001F18D046
:1006C000B9F5041F30D117E0D1F80CC02DE0D1F8F6
:1006D0000C8008F1040C28E0D1F80C8008F1080C1B
:1006E00023E0D1F80C8008F10C0C1EE000BF00BF25
:1006F00000BF00BF00BF00BFD1F80880B8F1000FF5
:1007000002D14FF0040C0BE0D1F80880B8F1010FD2
:1007100003D14FF0080C146102E04FF0080C546153
:1007200003E04FF0000C00E000BF00BFFF2801D83D
:10073000904601E002F104084646FF2802D84FEA3D
:10074000830803E0A3F108084FEA88084746D6F873
:1007500000804FF00F0909FA07F928EA09080CFA96
:1007600007F900E07AE048EA0908C6F80080D1F805
:10077000048008F08058B8F1805F6FD100BFDFF8C7
:10078000DC81D8F8188048F00108DFF8D091C9F86A
:100790001880C846D8F8188008F00108CDF8008005
:1007A00000BF00BF4FEAB9384FEA930958F8295003
:1007B0004FEA83784FEA18794FF00F0808FA09F8E2
:1007C00025EA0805DFF89881424502D14FF000087C
:1007D00024E0DFF89081424502D14FF001081DE08E
:1007E000DFF88481424502D14FF0020816E0DFF8BD
:1007F0007C81424502D14FF003080FE0DFF87081A1
:10080000424502D14FF0040808E0DFF86881424514
:1008100002D14FF0050801E04FF006084FEA837956
:100820004FEA197908FA09F848EA0505DFF848811E
:100830004FEA930948F82950D1F8048008F4803829
:10084000B8F5803F0BD1DFF83481D8F8008048EA52
:100850000008DFF82891C9F800800AE075E0DFF8A9
:100860001C81D8F8008028EA0008DFF81091C9F848
:100870000080D1F8048008F40038B8F5003F0ED1AC
:10088000DFF8F88008F10408D8F8008048EA00088A
:10089000DFF8E89009F10409C9F800800DE0DFF8FD
:1008A000DC8008F10408D8F8008028EA0008DFF8A6
:1008B000CC9009F10409C9F80080D1F8048008F44B
:1008C0008018B8F5801F0ED1DFF8B08008F1080855
:1008D000D8F8008048EA0008DFF8A09009F108097C
:1008E000C9F800800DE0DFF8948008F10808D8F816
:1008F000008028EA0008DFF8849009F10809C9F8A7
:100900000080D1F8048008F40018B8F5001F0ED15B
:10091000DFF8688008F10C08D8F8008048EA000881
:10092000DFF8589009F10C09C9F800800DE0DFF8F4
:100930004C8008F10C08D8F8008028EA0008DFF89D
:100940003C9009F10C09C9F800805B1C102BFFF4E6
:1009500081AEBDE8F88700000000111000100240D1
:1009600000080140000C014000100140001401404B
:1009700000180140001C0140080001400004014033
:100980000AB1016101E00B0403617047014800688E
:10099000704700000400002010B50848006840F0CF
:1009A000100006490860052000F068F80F2000F0EC
:1009B00007F800F017F8002010BD000000200240EA
:1009C00070B5044600F0BAF94FF47A71B0FBF1F556
:1009D000284600F08FFE00222146501E00F010F83D
:1009E000002070BD704700BF00F01F020121914040
:1009F0004209920002F1E022C2F8001100BF7047E4
:100A00002DE9F05F80460D461646002701F0C2FA38
:100A1000074639462A46334601F00700C0F1070A67
:100A2000BAF1040F02D94FF0040A01E0C0F1070A3D
:100A3000D14600F1040ABAF1070F02D24FF0000AC2
:100A400001E0A0F1030AD4464FF0010A0AFA09FABC
:100A5000AAF1010A0AEA020A0AFA0CFA4FF0010B9B
:100A60000BFA0CFBABF1010B0BEA030B4AEA0B048C
:100A70002146404601F096FABDE8F09F00BF00F025
:100A80000702064B19684FF6FF031940044B0B434E
:100A900043EA0221014B196000BF70470CED00E0F2
:100AA0000000FA0570B504460D4600269F48006810
:100AB00000F00700A8420ED29C48006820F0070012
:100AC00028439A4908600846006800F00700A842D9
:100AD00001D0012070BD207800F00200022807D16B
:100AE0009348406820F0F000A168084390494860AE
:100AF000207800F0010000287CD0606801282DD10A
:100B00002020010391FAA1F1B1FA81F108430121FA
:100B1000B1EB601F02D1864800680FE0202001037E
:100B200091FAA1F1B1FA81F108430221B1EB601F02
:100B300002D17F48006A01E07D48406A20210A0313
:100B400092FAA2F2B2FA82F2114301F01F020121DD
:100B500091400840002860D10120BBE7606802286E
:100B60002CD12020010591FAA1F1B1FA81F10843BD
:100B70000121B1EB601F02D16D4800680FE0202019
:100B8000010591FAA1F1B1FA81F108430221B1EB1B
:100B9000601F02D16648006A01E06548406A202172
:100BA0000A0592FAA2F2B2FA82F2114301F01F0290
:100BB00001219140084078BB01208BE720200221D1
:100BC00091FAA1F1B1FA81F108430121B1EB601F63
:100BD00002D15748006810E02020022191FAA1F1CB
:100BE000B1FA81F108430221B1EB601F03D15048F3
:100BF000006A02E054E04E48406A2021022292FA44
:100C0000A2F2B2FA82F2114301F01F0201219140D7
:100C1000084008B901205DE7FFE74548406820F03B
:100C200003006168084342494860FFF7AFFE06468B
:100C30006068012810D108E0FFF7A8FE801B41F290
:100C40008831884201D9032044E73948406800F0E0
:100C50000C000428F0D123E06068022810D108E0DD
:100C6000FFF794FE801B41F28831884201D90320AE
:100C700030E72F48406800F00C000828F0D10FE062
:100C800008E0FFF783FE801B41F28831884201D9DA
:100C900003201FE72648406800F00C000028F0D130
:100CA0002248006800F00700A8420ED91F480068DB
:100CB00020F0070028431D4908600846006800F03E
:100CC0000700A84201D0012004E7207800F00400CA
:100CD000042807D11648406820F4E060E168084322
:100CE00013494860207800F00800082808D110480F
:100CF000406820F46050216940EAC1000C49486016
:100D000000F04EF80A49496801F0F001F02292FA29
:100D1000A2F2B2FA82F2D140064A515CC8400649BA
:100D200008600F20FFF74CFE0020D3E600200240B1
:100D30000010024018370008000000200148006839
:100D4000704700000000002000B5FFF7F7FF0749DB
:100D5000496801F4E0614FF4E06292FAA2F2B2FA5B
:100D600082F2D140024A515CC84000BD00100240EE
:100D70002837000800B5FFF7E1FF0749496801F48B
:100D800060514FF4605292FAA2F2B2FA82F2D1406C
:100D9000024A515CC84000BD0010024028370008DC
:100DA000F0B585B00FF28C0C9CE8E01001A8A0E82B
:100DB000E01024A52D6800950021002400220023C6
:100DC0000020214D696801F00C056DB3042D02D09F
:100DD000082D28D101E01D4828E001F470154FF4DA
:100DE000701696FAA6F6B6FA86F6F54001AE735D71
:100DF00001F4803595B1144D6D6805F400354FF45C
:100E0000003696FAA6F6B6FA86F6F5401DF80540C5
:100E10000E4DB5FBF4F505FB03F202E00C4D03FBB0
:100E200005F2104602E000BF084800BF00BF05B051
:100E3000F0BD000002030405060708090A0B0C0DAB
:100E40000E0F1010010200000010024000127A0084
:100E500000093D0038B504460025207800F0010067
:100E600000287CD0F848406800F00C0004280CD022
:100E7000F548406800F00C00082837D1F248406877
:100E800000F48030B0F5803F30D12020010391FA8A
:100E9000A1F1B1FA81F108430121B1EB601F02D148
:100EA000E94800680FE02020010391FAA1F1B1FAAE
:100EB00081F108430221B1EB601F02D1E248006AD0
:100EC00001E0E148406A20210A0392FAA2F2B2FA54
:100ED00082F2114301F01F020121914008400028D5
:100EE000BFD0606800283AD1012038BD00BF6068DB
:100EF000B0F5803F06D1D448006840F48030D24934
:100F0000086028E0606858B9CF48006820F4803055
:100F1000CD4908600846006820F4802008601AE087
:100F20006068B0F5A02F0BD1C748006840F480205E
:100F3000C54908600846006840F4803008600AE04F
:100F4000C148006820F48030BF4908600846006846
:100F500020F48020086000BF6068C8B300E06FE044
:100F6000FFF714FD054606E0FFF710FD401B64285F
:100F700001D90320B9E72020010391FAA1F1B1FAC8
:100F800081F108430121B1EB601F02D1AE48006836
:100F90000FE02020010391FAA1F1B1FA81F1084399
:100FA0000221B1EB601F02D1A748006A01E0A64808
:100FB000406A20210A0392FAA2F2B2FA82F21143A5
:100FC00001F01F020121914008400028CCD037E0F9
:100FD000FFE7FFF7DBFC054606E0FFF7D7FC401B09
:100FE000642801D9032080E72020010391FAA1F1B0
:100FF000B1FA81F108430121B1EB601F02D192489F
:1010000000680FE02020010391FAA1F1B1FA81F10B
:1010100008430221B1EB601F02D18B48006A01E056
:101020008948406A20210A0392FAA2F2B2FA82F2B7
:10103000114301F01F020121914008400028CCD14A
:10104000207800F0020002284ED17F48406800F06E
:101050000C0050B17C48406800F00C00082844D1D6
:101060007948406800F4803078BB2020022191FA52
:10107000A1F1B1FA81F108430121B1EB601F02D166
:10108000714800680FE02020022191FAA1F1B1FA25
:1010900081F108430221B1EB601F02D16A48006A66
:1010A00001E06948406A2021022292FAA2F2B2FAD3
:1010B00082F2114301F01F0201219140084028B142
:1010C0002069012802D001200FE70EE05E48006889
:1010D00020F0F800F82292FAA2F2B2FA82F26169E4
:1010E000914008435849086091E02069F0B301201D
:1010F00090FAA0F1B1FA81F1544A42F82100FFF7C9
:1011000045FC054606E0FFF741FC401B022801D9DB
:101110000320EAE62020022191FAA1F1B1FA81F13F
:1011200008430121B1EB601F02D1474800680FE07E
:101130002020022191FAA1F1B1FA81F108430221A4
:10114000B1EB601F02D14048006A01E03E48406AAE
:101150002021022292FAA2F2B2FA82F2114301F0A5
:101160001F02012191400840002800E00FE0CAD092
:101170003548006820F0F800F82292FAA2F2B2FA9C
:1011800082F26169914008432F4908603FE00020E6
:10119000012191FAA1F1B1FA81F12C4A42F8210022
:1011A000FFF7F4FB054606E0FFF7F0FB401B0228C3
:1011B00001D9032099E62020022191FAA1F1B1FA88
:1011C00081F108430121B1EB601F02D11E48006884
:1011D0000FE02020022191FAA1F1B1FA81F1084338
:1011E0000221B1EB601F02D11748006A01E01648E6
:1011F000406A2021022292FAA2F2B2FA82F211434C
:1012000001F01F020121914008400028CCD1207834
:1012100000F0080008284BD1A069A8B3012191FA79
:10122000A1F0B0FA80F0094A02EB8000C0F8801407
:10123000FFF7ACFB05460BE0FFF7A8FB401B0228BD
:1012400006D9032051E6000000100240000042428F
:101250006020022191FAA1F1B1FA81F10843012144
:10126000B1EB601F02D1F948006810E06020022154
:1012700091FAA1F1B1FA81F108430221B1EB601FAB
:1012800003D1F248006A02E013E0F048406A6021AE
:10129000022292FAA2F2B2FA82F2114301F01F0284
:1012A0000121914008400028C6D00120FFF7BBF97A
:1012B00041E00020012191FAA1F1B1FA81F1E44A63
:1012C00002EB8101C1F88004FFF760FB054606E0F0
:1012D000FFF75CFB401B022801D9032005E66020D4
:1012E000022191FAA1F1B1FA81F108430121B1EB98
:1012F000601F02D1D54800680FE06020022191FAFA
:10130000A1F1B1FA81F108430221B1EB601F02D1D2
:10131000CE48006A01E0CD48406A6021022292FA7C
:10132000A2F2B2FA82F2114301F01F0201219140B0
:1013300008400028CCD1207800F00400042875D1A2
:1013400000BFC248C06940F08050C049C86108462B
:10135000C06900F08050009000BF00BFBD48006829
:1013600040F48070BB490860FFF710FB054606E0BB
:10137000FFF70CFB401B642801D90320B5E5B548F5
:10138000006800F480700028F2D000BFE0680128F7
:1013900006D1AE48006A40F00100AC49086227E07F
:1013A000E06858B9A948006A20F00100A74908621E
:1013B0000846006A20F00400086219E0E068052889
:1013C0000BD1A248006A40F00400A0490862084618
:1013D000006A40F0010008620AE09C48006A20F0C0
:1013E00001009A4908620846006A20F00400086279
:1013F00000BFE068D0B3FFF7C9FA054608E0FFF781
:10140000C5FA401B41F28831884201D903206CE5BE
:101410004020022191FAA1F1B1FA81F108430121A2
:10142000B1EB601F03D18948006810E058E040200C
:10143000022191FAA1F1B1FA81F108430221B1EB45
:10144000601F02D18148006A01E08048406A402163
:10145000022292FAA2F2B2FA82F2114301F01F02C2
:101460000121914008400028C9D039E0FFE7FFF78B
:101470008DFA054608E0FFF789FA401B41F28831F2
:10148000884201D9032030E54020022191FAA1F1E0
:10149000B1FA81F108430121B1EB601F02D16B4821
:1014A00000680FE04020022191FAA1F1B1FA81F128
:1014B00008430221B1EB601F02D16448006A01E0D9
:1014C0006248406A4021022292FAA2F2B2FA82F203
:1014D000114301F01F020121914008400028CAD1A8
:1014E000E069002873D05948406800F00C000828D3
:1014F0006ED0E06902286CD100204FF0807191FA23
:10150000A1F1B1FA81F1524A42F82100FFF73EFA07
:10151000054606E0FFF73AFA401B022801D90320EE
:10152000E3E42020010591FAA1F1B1FA81F1084329
:101530000121B1EB601F02D1444800680FE0202078
:10154000010591FAA1F1B1FA81F108430221B1EB51
:10155000601F02D13D48006A01E03C48406A2021FA
:101560000A0592FAA2F2B2FA82F2114301F01F02C6
:101570000121914008400028CCD1206AB0F5803F7D
:1015800007D13248406820F40030A16808432F4951
:101590004860D4E9080108432C49496821F47411D2
:1015A00008432A4948600121080690FAA0F0B0FAE1
:1015B00080F0274A42F82010FFF7E8F9054609E0D5
:1015C000FFF7E4F9401B022804D903208DE479E0F9
:1015D00076E02CE02020010591FAA1F1B1FA81F129
:1015E00008430121B1EB601F02D1184800680FE0E9
:1015F0002020010591FAA1F1B1FA81F108430221FD
:10160000B1EB601F02D11148006A01E00F48406A47
:1016100020210A0592FAA2F2B2FA82F2114301F0F5
:101620001F020121914008400028C9D04AE0002053
:101630004FF0807191FAA1F1B1FA81F1044A42F8B8
:101640002100FFF7A3F905460DE00000001002405D
:101650000000424200700040FFF798F9401B02284A
:1016600001D9032041E42020010591FAA1F1B1FA4A
:1016700081F108430121B1EB601F02D112480068DB
:101680000FE02020010591FAA1F1B1FA81F10843A0
:101690000221B1EB601F02D10B48006A01E00A4849
:1016A000406A20210A0592FAA2F2B2FA82F21143AC
:1016B00001F01F020121914008400028CCD101E037
:1016C000012012E4002010E400100240042808D198
:1016D0004FF0E021096941F004014FF0E02211616F
:1016E00007E04FF0E021096921F004014FF0E0220A
:1016F0001161704770B504462546681EB0F1807FC1
:1017000001D301200FE0681E4FF0E02148610F2156
:101710004FF0FF3000F046FC00204FF0E0218861E0
:1017200007200861002070BD024600BF92F8380013
:10173000012801D102207047012082F8380000BF43
:10174000022082F839001068406820F070001368A9
:101750005860106840680B68184313685860106838
:10176000806820F0800013689860106880684B687B
:10177000184313689860012082F8390000BF0020E8
:1017800082F8380000BF00BFD5E72DE9F0410446DC
:101790000D464FF000080026002714B90120BDE8CF
:1017A000F08194F8390028B9002084F838002046E8
:1017B00000F046F8022084F839002068806820F0A4
:1017C000070021688860211D206801F083FB2068E4
:1017D000D0F80880206886692068076A286840EA8F
:1017E000080840F203308643A969A86840EA01204E
:1017F000064340F60C4086434FF2F0008643E96909
:10180000E86840EA0120064328690001296A40EAA5
:101810000130064327F0220727F0880769696868C6
:1018200040EA011007432068C0F8088020688661FC
:1018300020680762012084F839000020AFE700002B
:1018400010B586B0044600200290039004900590E5
:101850001849206888422AD100BF1748806940F49F
:101860000060154988610846806900F400600190B5
:1018700000BF00BF00BF0846806940F0400088619B
:101880000846806900F04000019000BF00BF4FF49F
:101890002060029000200390049002A90748FEF700
:1018A000CFFE0748406840F0C0000549486006B0D8
:1018B00010BD0000002C0140001002400018014043
:1018C0000000014030B504460D4615B1042D0CD181
:1018D00005E001220021206801F044FB10E0012214
:1018E0000421206801F03EFB0AE00122002120686B
:1018F00001F038FB01220421206801F033FB00BF16
:1019000000BF2068006840F00100216808600020E6
:1019100030BD000010B586B0044600200290039050
:10192000049005902068B0F1804F16D100BF0C489C
:10193000806940F004000A4988610846806900F027
:101940000400019000BF00BF062002900220039017
:10195000059002A90348FEF773FE06B010BD000013
:10196000001002400008014070B504460D461646BE
:1019700000BF94F83800012801D1022070BD012079
:1019800084F8380000BF022084F8390036B1042EF4
:101990001BD0082E31D00C2E5ED145E029462068A0
:1019A00001F0EEFA2068806940F008002168886143
:1019B0002068806920F004002168886120688069BF
:1019C000296908432168886147E02946206801F0B9
:1019D00013FB2068806940F40060216888612068FA
:1019E000806920F4806021688861206880692969A5
:1019F00040EA0120216888612FE02946206801F033
:101A00003BFB2068C06940F008002168C86120687D
:101A1000C06920F004002168C8612068C069296994
:101A200008432168C86118E02946206801F064FB7A
:101A30002068C06940F400602168C8612068C069FE
:101A400020F480602168C8612068C069296940EA83
:101A500001202168C86100E000BF00BF012084F8B8
:101A6000390000BF002084F8380000BF00BF85E7C0
:101A700010B504460CB9012010BD94F8390028B9FE
:101A8000002084F83800204600F00CF8022084F88A
:101A90003900211D206801F01DFA012084F8390069
:101AA0000020E9E708B50168B1F1804F0DD100BF12
:101AB0000649C96941F00101044AD1611146C96969
:101AC00001F00101009100BF00BF08BD00100240FD
:101AD00030B504460D4601222946206801F042FA3D
:101AE0000C492068884203D00B492068884201D104
:101AF000012000E0002028B12068406C40F4004044
:101B0000216848642068006840F00100216808608E
:101B1000002030BD002C01400034014070470146D8
:101B200091F839007047F8B5044600250026206872
:101B3000006800F001052068C06800F4807625B1D7
:101B40001EB1E06B40F00100E06320680068C0F364
:101B500040052068406900F0010625B11EB1E06B28
:101B600040F00400E06320680068C0F3800525B100
:101B70001EB1E06B40F00200E06320680068C0F333
:101B8000C00525B11EB1E06B40F00800E06320689D
:101B90000068C0F340152068C06800F020061DB141
:101BA00016B1204601F0ECFA20680068C0F3C015B9
:101BB0002068C06800F080061DB116B1204601F013
:101BC00021FC20680068C0F380152068C06800F020
:101BD00040061DB116B1204601F0BAFAE06B70B1B3
:101BE00000BF20680068009020684068009000BF37
:101BF00000BF012084F839002046FFF78FFFF8BDB1
:101C000010B504460CB9012010BDA06900B100E078
:101C100000BF94F8390028B9002084F83800204625
:101C200000F026F8022084F839002068C06820F40B
:101C300000502168C860204601F000FB2068006960
:101C400020F49040216808612068406920F02A0053
:101C5000216848612068C06840F400502168C8606D
:101C60000020E063012084F839000020CCE7000068
:101C700010B586B0044625492068884244D100BF8B
:101C80002348806940F00400214988610846806942
:101C900000F00400019000BF00BF00BF084680694B
:101CA00040F4804088610846806900F480400190DB
:101CB00000BF00BF00BF0846806940F00100886196
:101CC0000846806900F00100019000BF00BF481580
:101CD000029002200390012004900320059002A9A5
:101CE0000C48FEF7ADFC4FF480600290002003909A
:101CF00002A90848FEF7A4FC2520FEF774FE032283
:101D000011462520FEF77CFE06B010BD00380140CC
:101D1000001002400008014030B50346002493F84B
:101D20003940012C01D0122C37D101B10AB9012060
:101D300030BD00BF93F83800012801D10220F7E739
:101D4000012083F8380000BF99629A85DA85002067
:101D5000D86393F83900122803D1322083F8390070
:101D600002E0222083F8390000BF002083F8380009
:101D700000BF1868C06840F480701D68E86018688B
:101D8000406940F001001D6868611868C06840F053
:101D900020001D68E8600020CAE70220C8E70000B4
:101DA0001D4A0168914236D11C49098801F400415D
:101DB00089BB1A49098801F4804171B11849097831
:101DC0000A2903D00021154A118024E0134909880B
:101DD00041F40041114A11801DE0114909780D2993
:101DE00006D10E49098841F480410C4A118012E065
:101DF0000B490978094A1288C2F30D02094B99541C
:101E000006490988491C054A118011460988C729D5
:101E100001DD0021118070470038014014000020CE
:101E20001600002074060020704700BFFEE7000087
:101E300000B585B000BF1B48806940F00800194913
:101E400088610846806900F00800009000BF00BF6C
:101E500000BF0846806940F04000886108468069FC
:101E600000F04000009000BF00BF20200190012042
:101E7000029003900320049001A90B48FEF7E0FBB9
:101E80002020019001A90948FEF7DAFB0122202158
:101E90000548FEF775FD012220210448FEF770FD7C
:101EA00005B000BD00100240000C014000180140C8
:101EB00000B58BB0242102A8FEF782FA0020009022
:101EC000019015481549086000204860002113481A
:101ED00081604FF6FF71C160002101614161012005
:101EE00002900020039001200490002005900690AD
:101EF0000220079001200890002009900A9002A972
:101F00000648FFF742FC0020009001906946034814
:101F1000FFF70AFC0BB000BD002C01407C0700203D
:101F200000B589B00020079008901C216846FEF794
:101F300047FA4FF08040144908604720486000216C
:101F4000114881606321C16000210161FFF790FDAC
:101F500000200790089007A90B48FFF7E5FB6020D9
:101F600000900020019002900490042269460648E7
:101F7000FFF7FAFC082269460348FFF7F5FC024820
:101F8000FFF7C8FC09B000BDB807002000BFFEE79E
:101F90007047000002480068C0F30220704700004C
:101FA0000CED00E010B5002807DA0A07140E054A08
:101FB00000F00F031B1FD45403E00A07130E024A5C
:101FC000135410BD18ED00E000E400E010B500F07F
:101FD00013F800F07BFC00F0A7FC00F0C7FC00F059
:101FE00045FC00F005FC00F05BFD00F0FFFC00F09C
:101FF00025FD00F019F810BD0848802102E0491EB7
:10200000002204C00029FAD1054A064B1A601A467C
:10201000126822F007021A607047000014170020AF
:102020001419002070000020704700000648007856
:10203000012808D105480078FF2804D20348007819
:10204000401C0249087070474A0000203D000020F3
:1020500010B500241A480078012830D1FEF7DAF8CC
:1020600004461848007820B116480078401E1549EB
:10207000087014480078F8B913480078E0B900F007
:1020800071FD12481249097850F821001149086081
:102090000F4800781049097888420DD00D48006833
:1020A000C06B401C0B490968C8630C480068401CA1
:1020B0000A490860FEF7CEF82046FEF7AFF810BDDB
:1020C0004A0000203D0000203E000020240E002099
:1020D00040000020580000203F0000202400002085
:1020E00010B50B48007890B900F03CFD0948007825
:1020F0000949087009480749097850F8210008493A
:1021000008600846006807490860FEF78AF810BDB5
:102110004A000020400000203F000020240E002044
:10212000580000205000002010B50024022000F0CC
:1021300073FAFEF76FF8044600200B49086020464A
:10214000FEF76CF8642000F067FAFEF763F80446C7
:1021500005480068054908600120054908702046C7
:10216000FEF75CF810BD00004C0000203400002099
:102170003C00002010B504462046FEF705FA10BDCD
:102180002DE9F04F85B081468A4693461C46DDE92D
:102190000F78129D00200390FEF73CF8039023482F
:1021A000007830B10398FEF739F83C2005B0BDE85F
:1021B000F08F1F4850F8240088BB01201C4941F8CB
:1021C00024000398FEF72AF82A464146384600F0D4
:1021D0000DFE2B465A465146484600F073F90490CE
:1021E0001198CDE9008002953A4620460E9B04994D
:1021F00000F0CEFC064636B90E48007801280CD116
:1022000000F076FC09E0FEF705F80390002008498D
:1022100041F824000398FEF701F83046C6E7FFE7CF
:102220000398FDF7FBFF2820C0E700003D000020D9
:10223000240E00204A00002010B504462046FEF778
:10224000A4F910BD2DE9F041054600274A48007861
:1022500010B14020BDE8F0813F2D01D13E20F9E7CB
:10226000FDF7D8FF0746FF2D03D14448006890F8DA
:102270003650434850F8254024B93846FDF7CEFF84
:102280004320E7E7012C04D13846FDF7C7FF3D2086
:10229000E0E714F8380F3B49085C617888432178FF
:1022A000384A505414F838091146085C30B994F88B
:1022B0003A1035480078884333490870E06918B10E
:1022C0002046E16900F05FFA206A18B12046216AD1
:1022D00000F070FAA66A16B1304600F0B5FA002098
:1022E000206384F8340084F8350028480078FF28FB
:1022F00004D226480078401C244908703846FDF76F
:102300008DFF00F03FFAFDF785FF07461F48007874
:1023100020B11E480078401E1C490870204600F07D
:1023200041F81B480078401E1949087000201449E4
:1023300041F82500A06930B900206169886115491C
:102340006069086005E0D4E905014861D4E9051039
:1023500088611148006860610F4804600FA0206523
:102360003846FDF75BFF0E480078012801D100F0E8
:10237000BFFB00206EE700003D0000205000002061
:10238000240E002042000020410000203E000020DA
:102390004B0000205C000020540000203F000000A3
:1023A0004A00002010B504462046FEF7EFF810BDA5
:1023B00010B5FEF7ECF810BD2DE9F04106460F46CA
:1023C00014464FF000081548007818B1122020700C
:1023D000BDE8F081FDF71EFF8046FF2E03D11048B7
:1023E000006890F836600F4850F826502DB94046E6
:1023F000FDF714FF43202070EAE7012D05D1404688
:10240000FDF70CFF43202070E2E72F654046FDF703
:1024100005FF0020207000BFDAE700003D0000202B
:1024200050000020240E002010B504462046FEF780
:10243000AFF810BD10B5FEF7ACF810BD2DE9F047B0
:1024400007460D464FF0000A002028606860FDF73F
:10245000E1FE8246FF2F03D11848006890F83670DD
:10246000174850F827402CB95046FDF7D7FE4320B7
:10247000BDE8F087012C04D15046FDF7CFFE432084
:10248000F6E7207C00F0010020B95046FDF7C6FEBB
:102490004520EDE70026D4F80C90D4F8088050468B
:1024A000FDF7BCFE00E0761C58F8041B0029FAD0AA
:1024B0002E60A9EB060068600020D9E750000020DC
:1024C000240E002070B50446101D20F007004FF0C8
:1024D0008076051F28462E60051F28462C60214E59
:1024E000051F28462E604FF01236051F28462E6025
:1024F0004FF00336051F28462E604FF00236051FA9
:1025000028462E607610051F28462E60051F284697
:1025100029604FF01136051F28462E604FF0103607
:10252000051F28462E604FF00936051F28462E60ED
:102530004FF00836051F28462E604FF00736051F5E
:1025400028462E604FF00636051F28462E604FF0B5
:102550000536051F28462E604FF00436051F284615
:102560002E6070BDF92C00082DE9F04105464FF0B2
:102570000008FDF74FFE8046FF2D05D1204800687A
:1025800090F83650012608E01D48006890F83600A3
:10259000A84201D1012600E000261A4850F8254043
:1025A0002CB94046FDF73AFE4820BDE8F081012CE9
:1025B00004D14046FDF732FE4320F6E794F8387028
:1025C0001148C05D94F8391088430F49C855084632
:1025D000C05D30B994F83A100C48007888430B4934
:1025E000087094F8340040F0080084F83400404645
:1025F000FDF714FE012E01D100F07AFA0020D4E795
:1026000050000020240E0020420000204100002045
:1026100010B5FDF7BFFF10BD70B505460026174881
:10262000007800B170BD1648007800B1FAE71DB31C
:10263000FDF7F0FD06461348006890F83840124850
:10264000005D1049096891F8391088430E49085512
:102650000846005D40B90B48006890F83A100B48F6
:1026600000788843094908700648006805633046C9
:10267000FDF7D4FD00F03CFA00BFD3E73D00002099
:102680003E000020500000204200002041000020B9
:1026900070B5002600F072F8FDF7BCFD0646314823
:1026A0000068401C2F4908603046FDF7B7FD2E48F2
:1026B0000078012853D12D48007820B1012804D09A
:1026C000022809D103E001250BE0002509E00125DE
:1026D00001202649087004E00125002023490870E4
:1026E00000BF00BF05B970BD2148046833E0FDF7A5
:1026F00091FD0646206B50B3206B401E2063206B7B
:1027000028BB94F8340000F0370040B114F8340FBF
:1027100000F0C800207001206070343C02E000200E
:1027200084F8350094F8340000F0080078B93834A3
:10273000A0781049097808430E49087020780E499E
:10274000085C6178084314F838190B4A50546469DE
:102750003046FDF763FD94F836003F28C7D100BF2F
:10276000C1E700006C0000204A000020600000204B
:102770005C000020410000204200002010B5FDF761
:102780000AFF10BD704710B590F8382001F10B0317
:102790009B5C90F83940A34301F10B04A3542346FA
:1027A0009B5C23B98B7A90F83A40A3438B72002349
:1027B000C36110BDF0B5024612F8384F95785678CF
:1027C000383A0B4618680FE000F10B073F5DB7433E
:1027D00000F10B0C0CF8047067463F5D17B9877A5F
:1027E000AF4387721B1D18680028EDD1F0BD0000B3
:1027F0002DE9F0415021114800F048F900250DE085
:10280000681C86B20D4800EB051400EB061700208B
:10281000207067600AA0E060681C85B2042DEFD3C9
:10282000064800EB051400202070606004A0E06002
:10283000024804490860BDE8F0810000D409002086
:102840003F0000002C00002030B501464A680868AF
:102850002AB9CC68606028B10025456002E01060AC
:1028600000B142608B6800259D6230BD70B54FF4A9
:10287000F071134800F00AF9002411E0601C85B2E1
:1028800004EB44000E4901EBC00305EB450001EBEE
:10289000C006002018705E600AA05861601C84B2F7
:1028A000132CEBD304EB4400054901EBC0030020DB
:1028B0001870586003A0586108460349086070BD4D
:1028C000F40700203F0000002800002000200B49F2
:1028D00008600B4908700B4908700B4908700B49D8
:1028E00008700B4908600B4908600B4908600B49E8
:1028F00008600B4908700B49087070476C00002095
:102900003D0000203E0000204B0000204A00002037
:10291000240000204C00002038000020340000205B
:102920003C0000206800002000210A4A11700020AD
:1029300004E00021084A1154411CC8B20828F8D309
:102940000021064A1170064A1170064A1160064AB3
:102950001160704741000020420000203F0000202D
:1029600040000020580000205000002070B54FF4B7
:10297000F261194800F08AF84FF48071174800F0AE
:1029800085F8002413E0601CC5B204EB440000EBA2
:10299000C400114901EBC00305EB450000EBC50085
:1029A00001EBC0065E610EA01865601CC4B2152C58
:1029B000E9D304EB440000EBC400074901EBC0037A
:1029C0000020586106A018650020064908600248EA
:1029D0000549086070BD0000240F0020240E00206F
:1029E0003F0000005C0000205400002000B587B0CC
:1029F0000320002180220A4BCDE90132CDE90310EA
:102A00004FF6FF703F23074A00900748FFF7B8FBD7
:102A100006AA06A13F20FFF7CFFC07B000BD0000CB
:102A2000240C0020200E0020D12C000875432F4FCD
:102A3000532D49492049646C6500000000B587B0FA
:102A40000320002180220A4BCDE90132CDE9031099
:102A50004FF6FE703E23074A00900748FFF790FBB1
:102A600006AA06A13E20FFF7A7FC07B000BD0000A4
:102A7000240A0020200C0020112D000875432F4F40
:102A8000532D4949205374617400000004E0002272
:102A900000F8012B4A1E91B20029F8D170470000BE
:102AA0002DE9F04160211048FFF7F0FF00240DE010
:102AB000601C86B204EB44000B4901EBC00506EB39
:102AC000460001EBC0072F60601C84B2032CEFD3DB
:102AD00004EB4400044901EBC005002028600846CF
:102AE00002490860BDE8F081B416002064000020AF
:102AF00010B50024FDF78EFB044613480078F8B9A2
:102B000012480078E0B900F02DF811481149097811
:102B100050F82100104908600E4800780F490978E4
:102B200088420DD00C480068C06B401C0A490968F7
:102B3000C8630B480068401C09490860FDF785FB25
:102B40002046FDF76BFB10BD3D0000203E0000203D
:102B5000240E002040000020580000203F000020EC
:102B6000240000200649074A1278885C0649095C5F
:102B7000034A515C01EBC001044A11707047000028
:102B800030370008410000204200002040000020B3
:102B90002DE9F84F05460F4690469946DDE90AAB08
:102BA00000200090FDF736FB009042480468002C9E
:102BB0007BD01C3454F8080C3E4908600098FDF79F
:102BC0002DFB44F81C7CA5760020207660766061A1
:102BD00044F818BC44F810AC44F8148C0C9824F851
:102BE0000C0C24F80A9C0020E077E810207705F010
:102BF0000700E076217F01208840A077E17E012058
:102C000088406077002020606060E060A060206203
:102C1000A0626062E062206327A060631C3C002623
:102C200006E0002104F1540040F82610701CC6B2E2
:102C3000002EF6D02046FFF79DFAFDF7EBFA009044
:102C40001E4840F825400098FDF7E8FA2046FFF7B7
:102C5000F3FAFDF7DFFA0090194800686061002080
:102C6000A0611748006810B11548006884611448D5
:102C700004603834A0781349097808431149087072
:102C800020781149085C6178084314F838190E4A15
:102C900050540E480078401C0C4908700098FDF70D
:102CA000BDFA0020BDE8F88FFFE70098FDF7B6FAFF
:102CB0004220F7E7540000203F000000240E0020CF
:102CC0005C00002041000020420000204B0000205A
:102CD000002400BF00BFFDF79DFA044605480068C8
:102CE000401C044908602046FDF798FAFFF760FB96
:102CF000F1E700004C00002010B504480068FFF721
:102D000093FBFF20FFF79EFA10BD0000500000204B
:102D100000BF00BF02E0C820FFF77EFC1F4800781C
:102D20000028F8D01E4800686421B0FBF1F01C496F
:102D300008600846006828B900201A490870FF207A
:102D4000FFF712FCFDF766FA044615480068642197
:102D50004843154908602046FDF760FA00BFFDF7BB
:102D600059FA0446104800681049086000200E49CE
:102D700008602046FDF752FA0C48006808490968C7
:102D8000B0FBF1F0C0F1640006490870FFF752FB98
:102D900000F00EF86420FFF73FFCE0E73C00002065
:102DA00034000020300000204C00002038000020BB
:102DB0007CB5002514E069462846FFF73FFB064630
:102DC00066B9094850F8254044B1012C06D0D4E931
:102DD000020100EB8100A0640198E064681CC5B2A8
:102DE0003F2DE8D97CBD0000240E002002F0010335
:102DF00043B102F002032BB102E0491E002308C0D8
:102E00000029FAD17047704730B58FB005460024CD
:102E100001200590000406900020079002200C90ED
:102E2000C1030D910E9505A8FEF714F804460CB1E8
:102E300000BFFEE70F2000900220019000200290CA
:102E40004FF4806003900020049002216846FDF753
:102E500029FE04460CB100BFFEE70FB030BD0000F4
:102E600010B505480078012805D1FFF7DFF8FFF716
:102E70000FFCFFF7EDF810BD4A0000201148006874
:102E800040F001000F490860084640680E490840BC
:102E90000C494860084600680C4908400949086028
:102EA0000846006820F4802008600846406820F446
:102EB000FE0048604FF41F008860C80304490860A2
:102EC00070470000001002400000FFF8FFFFF6FE10
:102ED00008ED00E0002202681D4B98420ED01D4B09
:102EE00098420BD0B0F1804F08D01B4B984205D0D0
:102EF0001A4B984202D01A4B984203D122F070022A
:102F00004B681A43124B98420ED0124B98420BD08A
:102F1000B0F1804F08D0104B984205D00F4B98422B
:102F200002D00F4B984203D122F44072CB681A436F
:102F300002608B68C3620B688362054B984202D0C3
:102F4000044B984201D10B6903630123436170472D
:102F5000002C014000340140000400400008004003
:102F6000000C004030B50023012404FA01F3046A88
:102F70009C430462046A02FA01F52C43046230BDEA
:102F800030B5002400220023056A25F00105056202
:102F9000026A4368846924F0700424F003040D6815
:102FA0002C4322F002028D682A43114DA84200D121
:102FB00003E0104DA84206D100BF22F00802CD6800
:102FC0002A4322F004020A4DA84202D0094DA84229
:102FD00007D123F4807323F400734D692B438D696B
:102FE0002B43436084614D684563026230BD00003D
:102FF000002C01400034014030B5002400220023A1
:10300000056A25F010050562026A4368846924F4A4
:10301000E04424F440740D6844EA052422F02002C0
:103020008D6842EA0512124DA84200D103E0114D0D
:10303000A84207D100BF22F08002CD6842EA051203
:1030400022F040020A4DA84202D00A4DA84209D1FE
:1030500023F4806323F400634D6943EA85038D699B
:1030600043EA8503436084614D688563026230BD35
:10307000002C01400034014030B500240022002320
:10308000056A25F480750562026A4368C46924F004
:10309000700424F003040D682C4322F400728D6840
:1030A00042EA0522124DA84200D103E0114DA84288
:1030B00007D100BF22F40062CD6842EA052222F463
:1030C00080620B4DA84202D00A4DA84209D123F4D8
:1030D000805323F400534D6943EA05138D6943EA95
:1030E00005134360C4614D68C563026230BD0000D2
:1030F000002C01400034014030B5002200230024A0
:10310000056A25F480550562036A4468C26922F4A1
:10311000E04222F440720D6842EA052223F4005393
:103120008D6843EA0533084DA84202D0074DA842F6
:1031300004D124F480444D6944EA85144460C2619A
:103140004D680564036230BD002C0140003401402D
:1031500010B504462068C06820F040002168C860AF
:1031600094F83900322803D1222084F8390002E093
:10317000012084F839002046FEF756FE002010BDDD
:1031800070B50446002694F83960222E01D0322E04
:1031900052D1A068B0F5805F13D1A56A206940B90B
:1031A00020684068C0F308002880A06A801CA062E4
:1031B00019E020684068C0B22880A06A401CA06264
:1031C00011E0206938B920684068C1B2A26A501C79
:1031D000A062117007E02068406800F07F01A26AD9
:1031E000501CA0621170E08D401E80B2E08508BBCB
:1031F0002068C06820F020002168C86094F8390079
:10320000322803D1122084F839000EE02068C0680B
:1032100020F480702168C8602068406920F00100B7
:1032200021684861012084F839002046FEF7B8FD86
:10323000002070BD0020FCE70220FAE72DE9F041F4
:10324000044600252068006920F44050E1680843E6
:10325000216808612169A0680843616940EA0105A5
:103260002068C06841F20C61884328432168C86027
:103270002068406920F44070A169084321684861D2
:103280005F49206888425CD1FDF774FD00EBC00106
:1032900001EB001061688900B0FBF1F6FDF76AFDF3
:1032A00000EBC00101EB001061688900B0FBF1F098
:1032B0006421B0FBF1F000EBC00101EB0010A6EBC4
:1032C0008000322101EB00106421B0FBF1F000F02E
:1032D000F006FDF74FFD00EBC00101EB0010616847
:1032E0008900B0FBF1F06421B0FBF1F006EB0016B1
:1032F000FDF740FD00EBC00101EB001061688900A3
:10330000B0FBF1F7FDF736FD00EBC00101EB00105B
:1033100061688900B0FBF1F06421B0FBF1F000EBD3
:10332000C00101EB0010A7EB8000322101EB00107F
:103330006421B0FBF1F000F00F0030442168886098
:103340005BE0FDF701FD00EBC00101EB00106168DF
:103350008900B0FBF1F6FDF7F7FC00EBC00101EBD3
:10336000001061688900B0FBF1F06421B0FBF1F05E
:1033700000EBC00101EB0010A6EB8000322101EB55
:1033800000106421B0FBF1F000F0F006FDF7DCFC6A
:1033900000EBC00101EB001061688900B0FBF1F0A7
:1033A0006421B0FBF1F006EB0016FDF7CDFC00EB5D
:1033B000C00101EB001061688900B0FBF1F7FDF777
:1033C000C3FC00EBC00101EB001061688900B0FB99
:1033D000F1F06421B0FBF1F000EBC00101EB001053
:1033E000A7EB8000322101EB00106421B0FBF1F06B
:1033F00000F00F00304421688860BDE8F0810000D3
:103400000038014010B50146002391F83930122BE5
:1034100001D0322B2CD18868B0F5805F0FD10A6AB9
:103420001088C0F308000C686060086918B9086A61
:10343000801C086209E0086A401C086205E00C6A0A
:10344000601C086220780C686060C88C401E80B2E6
:10345000C88458B90868C06820F080000C68E06033
:103460000868C06840F040000C68E060002010BDB3
:103470000220FCE710B50024FEF7D8FD0D48FEF74A
:1034800052FB00BF01E0641C00BF0A48FEF747FB87
:103490000128F8D100BF002401E0641C00BF012214
:1034A00005490448FEF738FC0028F6D100BFFEF7B6
:1034B000CFFD10BD3C0700201600002000BFFEE736
:1034C0000149096888637047B80700200149096805
:1034D000C8637047B807002000BF704770B5044646
:1034E0000420FEF7F3F80C48046025464FF47A7088
:1034F00045430120094908804FF0E020006940F071
:1035000002004FF0E021086108464561006940F083
:103510000100086170BD0000080000200C000020C0
:1035200000BF054A126802F04002002AF9D0C2B278
:10353000014B1B1D1A6070470038014000B585B073
:10354000FDF72AFA4FF4E010FFF75EFC4820FFF782
:10355000C5FFFEF76DFC4FF4E13000F0C1F80CA0A0
:10356000FCF7B2FEFEF732FD0720002180220C4B53
:10357000CDE90132CDE903100A200346094A009043
:103580000948FEF7FDFDFEF7ABFD002005B000BDCC
:103590007561727420696E6974206F6B0D0A00008A
:1035A00074000020700200206936000810B513482E
:1035B0000068406A1249086012480068401C1149BE
:1035C000086008460068B0F57A7F03DA6420FCF7EB
:1035D000E5FF0BE00B480068B0F5FA6F03DA6420F2
:1035E000FCF7F8FF02E00020064908600548026881
:1035F0000348016804A0FCF767FE10BD7C070020AB
:10360000180000201C000020636F756E743A25645A
:103610002C73707065643A25640D0A0010B5FEF7CE
:1036200047FCFEF77DFCFCF7F1FF18210448FEF78C
:1036300049F94FF47A7002490968486210BD0000E8
:103640007C070020FFF7EAFF04E0FFF7AFFF14203C
:10365000FEF7E2FFF9E77047FFF7FDFF03E04FF4E5
:103660009670FEF7D9FFFAE730B585B0044600251D
:1036700000BFFEF759FDFCF7CDFD054607200021F0
:103680008022114BCDE90310CDE9013200900346B1
:103690000E4A0F48FEF774FD0720002180220D4BD3
:1036A000CDE90132CDE90310062003460A4A009015
:1036B0000A48FEF765FD2846FCF7B0FD0A20FEF734
:1036C00053FF05B030BD00007402002070040020DC
:1036D00045360008740400207006002059360008A2
:1036E00010B5044609480A490860084644600021AC
:1036F0008160C160016181610C214161FEF780FA46
:10370000012204490248FEF707FB10BD00380140C2
:103710003C07002016000020000000000000000010
:103720000102030406070809000000000102030467
:10373000000001000200010003000100020001007E
:10374000040001000200010003000100020001006A
:103750000500010002000100030001000200010059
:10376000040001000200010003000100020001004A
:103770000600010002000100030001000200010038
:10378000040001000200010003000100020001002A
:103790000500010002000100030001000200010019
:1037A000040001000200010003000100020001000A
:1037B00007000100020001000300010002000100F7
:1037C00004000100020001000300010002000100EA
:1037D00005000100020001000300010002000100D9
:1037E00004000100020001000300010002000100CA
:1037F00006000100020001000300010002000100B8
:1038000004000100020001000300010002000100A9
:103810000500010002000100030001000200010098
:103820000400010002000100030001000200010089
:103830005038000800000020740000006C010008EF
:10384000C438000874000020041F0000880100082C
:1038500000A24A0400000000000000000000000078
:103860000000000000000000000000000000000058
:103870000000000000000000000000000000000048
:103880000000000000000000000000000000000038
:103890000000000000000000000000000000000028
:1038A0000000000000000000000000000000000018
:1038B0000000000000000000000000000000000008
:0438C0000000000004
:0400000508000131BD
:00000001FF
