:020000040800F2
:10000000C0260020D101000825250008F3210008A2
:1000100021250008BD040008653A00080000000022
:10002000000000000000000000000000A1330008F4
:100030008D050008000000005B020008F93300088D
:10004000EB010008EB010008EB010008EB010008E0
:10005000EB010008EB010008EB010008EB010008D0
:10006000EB010008EB010008EB010008EB010008C0
:10007000EB010008EB010008EB010008EB010008B0
:10008000EB010008EB010008EB010008EB010008A0
:10009000EB010008EB010008EB010008EB01000890
:1000A000EB010008EB010008EB010008EB01000880
:1000B000EB010008EB010008EB010008EB01000870
:1000C000EB010008EB010008EB010008EB01000860
:1000D000EB0100081D3A0008EB010008EB010008E5
:1000E000EB010008EB010008EB010008EB01000840
:1000F000EB010008EB010008EB010008EB01000830
:10010000EB010008EB010008EB010008EB0100081F
:10011000EB010008EB0100086D340008EB0100085A
:10012000EB010008EB010008EB010008EB010008FF
:1001300000F002F800F03CF80AA090E8000C8244BD
:100140008344AAF10107DA4501D100F031F8AFF29A
:10015000090EBAE80F0013F0010F18BFFB1A43F0A5
:1001600001031847BC3C0000DC3C0000103A24BFEF
:1001700078C878C1FAD8520724BF30C830C144BF0C
:1001800004680C607047000000230024002500264E
:10019000103A28BF78C1FBD8520728BF30C148BFEA
:1001A0000B607047002070471FB51FBD10B510BD14
:1001B00000F04AF91146FFF7F7FF03F087FC00F063
:1001C00068F903B4FFF7F2FF03BC03F04DFC000035
:1001D0000948804709480047FEE7FEE7FEE7FEE7DB
:1001E000FEE7FEE7FEE7FEE7FEE7FEE70448054917
:1001F000054A064B7047000015340008310100081D
:10020000C0200020C0260020C0220020C0220020E4
:10021000EFF3108072B6704780F3108870471F4864
:100220004FF6FF710170002080F309881C480168B7
:1002300081F308881B48012101701B484FF0805151
:10024000016062B6FEE718484FF0805101607047C8
:1002500015484FF080510160704772B6EFF3098086
:1002600028B1203880E8F00F10490968086000B50F
:100270000F4880475DF804EB0E480F490A7802707A
:100280000A480E490A680260106890E8F00F2030B2
:1002900080F309884EF0F40E62B6704722ED00E05C
:1002A000640000203E00002004ED00E04400002037
:1002B000A52B000833000020340000204C00002053
:1002C000704700000FB4044910B503AA029800F06B
:1002D0008DF810BC5DF814FB100000202DE9F041F2
:1002E0000F460546002028622846E968884770B313
:1002F000252805D0D5E901219047286A401CF2E75E
:10030000E9682846002688476C2804460AD0682CED
:1003100008D04C2C35D06A2C31D0742C31D07A2CAA
:100320002FD016E0E968064628468847B0420446C2
:1003300008D16C2E23D04FF480662846E9688847A0
:10034000044606E06C2E03D04FF4807601E01EE0F8
:100350004026E4B1A4F14100192802D8203446F423
:1003600000663A46214628462E60FFF71BFF60B123
:10037000012808D0FF1D27F007070837B4E78026BB
:10038000DBE70026D9E73F1DAEE72046B2E7286A43
:10039000BDE8F0814FF0000200B513469446964642
:1003A000203922BFA0E80C50A0E80C50B1F1200188
:1003B000BFF4F7AF090728BFA0E80C5048BF0CC036
:1003C0005DF804EB890028BF40F8042B08BF704794
:1003D00048BF20F8022B11F0804F18BF00F8012B06
:1003E000704770477047704770470000074B70B503
:1003F0000D467B4400F011F80446284600F020F832
:1004000010B14FF0FF3070BD204670BDBB3600000C
:1004100001694A1C02610878704700B58FB0CDE9C8
:1004200001310021059105497944CDE903101146B8
:100430006846FFF753FF0FB000BD0000E5FFFFFF68
:10044000007B00F080007047754600F02BF8AE4648
:1004500005006946534620F00700854618B020B5D0
:10046000FFF7C4FEBDE820404FF000064FF0000744
:100470004FF000084FF0000B21F00701AC46ACE84C
:10048000C009ACE8C009ACE8C009ACE8C0098D46B9
:10049000704710B50446AFF300802046BDE8104019
:1004A000FFF78FBE004870476020002070477047FC
:1004B00070477047704770477047704700BFFEE74E
:1004C000F0B50146059C087860B13CB1086908B9EF
:1004D0000120F0BD0869401E086101E0486808611C
:1004E0000020F6E74878B8B1A4B1887818B10020A8
:1004F0008870C1E90623D1E9060CD1E90256171A22
:1005000063EB0C00AC463546BCEB0706854103D2D5
:100510000120DEE7C1E906230020DAE710B501F08B
:1005200025FF01F059FF01F099FF01F0D9FF0421E7
:10053000134801F035FC0821114801F031FC00217D
:10054000104801F02DFC04210E4801F029FC002187
:100550000D4801F025FC04210B4801F021FC082185
:10056000094801F01DFC0C21074801F019FC082185
:10057000044801F015FC0C21024801F011FC10BDEB
:10058000500E00208C0E0020C80E002070472DE970
:10059000F05F0446884691469A46DDE90AB7DDE9F0
:1005A0000C563CB94946404600F04CFA01283DD172
:1005B00002243BE0022C0BD15946504600F042FA8F
:1005C00010B90120287001E00120307003242DE0D3
:1005D000032C06D14946404600F034FA30BB0524CE
:1005E00024E0052C22D15946504600F02BFA012870
:1005F00009D12878012806D1002028703070386889
:10060000401C386011E05946504600F01BFA48B9CA
:100610003078012806D10020287030703868401EDC
:10062000386002E000202870307000242046BDE8C9
:10063000F09F000070B504460025072C4BD2DFE880
:1006400004F0040E18222C3640000121244800F04A
:10065000F9F9012800D100E0002005463CE0022124
:100660001F4800F0EFF9012800D100E00020054606
:1006700032E004211A4800F0E5F9012800D100E039
:100680000020054628E00821154800F0DBF9012884
:1006900000D100E0002005461EE00121114800F0D5
:1006A000D1F9012800D100E00020054614E0022124
:1006B0000C4800F0C7F9012800D100E000200546F1
:1006C0000AE00821074800F0BDF9012800D100E048
:1006D0000020054600E000BF00BF284670BD0000B6
:1006E000001001400014014031B5002400F0B8F9B9
:1006F000044600BF00F0B4F9001B00998842F9D30A
:1007000038BD00002DE9F8470246002400200025EE
:100710008446002700237BE14FF0010808FA03F428
:10072000D1F8008008EA0400A0427DD1DFF8ECA2F5
:10073000D1F80480A8EB0A09D0453AD014DCB8F10E
:10074000030F50D009DCB8F1000F31D0B8F1010F20
:100750001CD0B8F1020F49D120E0B8F1110F18D028
:10076000B8F1120F42D11EE0B9F5881F25D006DC82
:10077000B9F5803F20D0B9F5801F37D11AE0B9F51F
:10078000001F18D0B9F5041F30D117E0D1F80CC004
:100790002DE0D1F80C8008F1040C28E0D1F80C8091
:1007A00008F1080C23E0D1F80C8008F10C0C1EE0D5
:1007B00000BF00BF00BF00BF00BF00BFD1F808806E
:1007C000B8F1000F02D14FF0040C0BE0D1F8088013
:1007D000B8F1010F03D14FF0080C146102E04FF0A3
:1007E000080C546103E04FF0000C00E000BF00BFB4
:1007F000FF2801D8904601E002F104084646FF2890
:1008000002D84FEA830803E0A3F108084FEA8808FA
:100810004746D6F800804FF00F0909FA07F928EA91
:1008200009080CFA07F900E07AE048EA0908C6F876
:100830000080D1F8048008F08058B8F1805F6FD153
:1008400000BFDFF8DC81D8F8188048F00108DFF835
:10085000D091C9F81880C846D8F8188008F0010867
:10086000CDF8008000BF00BF4FEAB9384FEA9309C6
:1008700058F829504FEA83784FEA18794FF00F085B
:1008800008FA09F825EA0805DFF89881424502D1FF
:100890004FF0000824E0DFF89081424502D14FF08C
:1008A00001081DE0DFF88481424502D14FF00208C3
:1008B00016E0DFF87C81424502D14FF003080FE0DB
:1008C000DFF87081424502D14FF0040808E0DFF8FC
:1008D0006881424502D14FF0050801E04FF006085B
:1008E0004FEA83794FEA197908FA09F848EA0505C9
:1008F000DFF848814FEA930948F82950D1F804807D
:1009000008F48038B8F5803F0BD1DFF83481D8F88F
:10091000008048EA0008DFF82891C9F800800AE062
:1009200075E0DFF81C81D8F8008028EA0008DFF8BD
:100930001091C9F80080D1F8048008F40038B8F5A7
:10094000003F0ED1DFF8F88008F10408D8F80080E5
:1009500048EA0008DFF8E89009F10409C9F80080C6
:100960000DE0DFF8DC8008F10408D8F8008028EA00
:100970000008DFF8CC9009F10409C9F80080D1F82B
:10098000048008F48018B8F5801F0ED1DFF8B0801D
:1009900008F10808D8F8008048EA0008DFF8A090BD
:1009A00009F10809C9F800800DE0DFF8948008F12A
:1009B0000808D8F8008028EA0008DFF8849009F1D8
:1009C0000809C9F80080D1F8048008F40018B8F5C7
:1009D000001F0ED1DFF8688008F10C08D8F80080FD
:1009E00048EA0008DFF8589009F10C09C9F80080BE
:1009F0000DE0DFF84C8008F10C08D8F8008028EAF8
:100A00000008DFF83C9009F10C09C9F800805B1C74
:100A1000102BFFF481AEBDE8F88700000000111034
:100A20000010024000080140000C0140001001408D
:100A30000014014000180140001C01400800014062
:100A400000040140024693680B400BB1012000E016
:100A5000002070470AB1016101E00B040361704797
:100A600001480068704700000400002010B50848E5
:100A7000006840F0100006490860052000F068F8A2
:100A80000F2000F007F800F017F8002010BD00005C
:100A90000020024070B5044600F0BAF94FF47A71B4
:100AA000B0FBF1F5284600F08FFE00222146501ED3
:100AB00000F010F8002070BD704700BF00F01F026A
:100AC000012191404209920002F1E022C2F8001196
:100AD00000BF70472DE9F05F80460D46164600279F
:100AE00001F022FD074639462A46334601F0070049
:100AF000C0F1070ABAF1040F02D94FF0040A01E06D
:100B0000C0F1070AD14600F1040ABAF1070F02D278
:100B10004FF0000A01E0A0F1030AD4464FF0010AA9
:100B20000AFA09FAAAF1010A0AEA020A0AFA0CFA0E
:100B30004FF0010B0BFA0CFBABF1010B0BEA030BB3
:100B40004AEA0B042146404601F0F6FCBDE8F09F5E
:100B500000BF00F00702064B19684FF6FF0319406B
:100B6000044B0B4343EA0221014B196000BF70475D
:100B70000CED00E00000FA0570B504460D460026B5
:100B80009F48006800F00700A8420ED29C48006809
:100B900020F0070028439A4908600846006800F0E2
:100BA0000700A84201D0012070BD207800F00200AB
:100BB000022807D19348406820F0F000A16808435C
:100BC00090494860207800F0010000287CD06068DF
:100BD00001282DD12020010391FAA1F1B1FA81F170
:100BE00008430121B1EB601F02D1864800680FE085
:100BF0002020010391FAA1F1B1FA81F10843022109
:100C0000B1EB601F02D17F48006A01E07D48406A75
:100C100020210A0392FAA2F2B2FA82F2114301F001
:100C20001F02012191400840002860D10120BBE74C
:100C3000606802282CD12020010591FAA1F1B1FAB7
:100C400081F108430121B1EB601F02D16D480068BA
:100C50000FE02020010591FAA1F1B1FA81F10843DA
:100C60000221B1EB601F02D16648006A01E06548CD
:100C7000406A20210A0592FAA2F2B2FA82F21143E6
:100C800001F01F0201219140084078BB01208BE751
:100C90002020022191FAA1F1B1FA81F1084301214A
:100CA000B1EB601F02D15748006810E020200221FC
:100CB00091FAA1F1B1FA81F108430221B1EB601F71
:100CC00003D15048006A02E054E04E48406A2021B7
:100CD000022292FAA2F2B2FA82F2114301F01F024A
:100CE00001219140084008B901205DE7FFE7454830
:100CF000406820F003006168084342494860FFF7FC
:100D0000AFFE06466068012810D108E0FFF7A8FE94
:100D1000801B41F28831884201D9032044E73948D9
:100D2000406800F00C000428F0D123E0606802283D
:100D300010D108E0FFF794FE801B41F28831884211
:100D400001D9032030E72F48406800F00C00082844
:100D5000F0D10FE008E0FFF783FE801B41F28831FD
:100D6000884201D903201FE72648406800F00C00A4
:100D70000028F0D12248006800F00700A8420ED9F0
:100D80001F48006820F0070028431D4908600846F6
:100D9000006800F00700A84201D0012004E7207895
:100DA00000F00400042807D11648406820F4E060F1
:100DB000E168084313494860207800F008000828DB
:100DC00008D11048406820F46050216940EAC10011
:100DD0000C49486000F04EF80A49496801F0F001FA
:100DE000F02292FAA2F2B2FA82F2D140064A515CA3
:100DF000C840064908600F20FFF74CFE0020D3E6EC
:100E00000020024000100240083D000800000020C1
:100E100001480068704700000000002000B5FFF79F
:100E2000F7FF0749496801F4E0614FF4E06292FA84
:100E3000A2F2B2FA82F2D140024A515CC84000BD2F
:100E400000100240183D000800B5FFF7E1FF074918
:100E5000496801F460514FF4605292FAA2F2B2FA7A
:100E600082F2D140024A515CC84000BD00100240ED
:100E7000183D0008F0B585B00FF28C0C9CE8E0102E
:100E800001A8A0E8E01024A52D6800950021002409
:100E9000002200230020214D696801F00C056DB38C
:100EA000042D02D0082D28D101E01D4828E001F4CE
:100EB00070154FF4701696FAA6F6B6FA86F6F54057
:100EC00001AE735D01F4803595B1144D6D6805F484
:100ED00000354FF4003696FAA6F6B6FA86F6F540D7
:100EE0001DF805400E4DB5FBF4F505FB03F202E0DD
:100EF0000C4D03FB05F2104602E000BF084800BF9E
:100F000000BF05B0F0BD0000020304050607080994
:100F10000A0B0C0D0E0F1010010200000010024011
:100F200000127A0000093D0038B5044600252078FB
:100F300000F0010000287CD0F848406800F00C0068
:100F400004280CD0F548406800F00C00082837D180
:100F5000F248406800F48030B0F5803F30D1202066
:100F6000010391FAA1F1B1FA81F108430121B1EB3A
:100F7000601F02D1E94800680FE02020010391FAC8
:100F8000A1F1B1FA81F108430221B1EB601F02D156
:100F9000E248006A01E0E148406A20210A0392FA2F
:100FA000A2F2B2FA82F2114301F01F020121914034
:100FB00008400028BFD0606800283AD1012038BD21
:100FC00000BF6068B0F5803F06D1D448006840F4A7
:100FD0008030D249086028E0606858B9CF4800687E
:100FE00020F48030CD4908600846006820F4802055
:100FF00008601AE06068B0F5A02F0BD1C748006800
:1010000040F48020C54908600846006840F48030FC
:1010100008600AE0C148006820F48030BF490860D9
:101020000846006820F48020086000BF6068C8B3EC
:1010300000E06FE0FFF714FD054606E0FFF710FD46
:10104000401B642801D90320B9E72020010391FA4D
:10105000A1F1B1FA81F108430121B1EB601F02D186
:10106000AE4800680FE02020010391FAA1F1B1FA27
:1010700081F108430221B1EB601F02D1A748006A49
:1010800001E0A648406A20210A0392FAA2F2B2FACD
:1010900082F2114301F01F02012191400840002813
:1010A000CCD037E0FFE7FFF7DBFC054606E0FFF7B3
:1010B000D7FC401B642801D9032080E720200103CE
:1010C00091FAA1F1B1FA81F108430121B1EB601F5E
:1010D00002D1924800680FE02020010391FAA1F1AB
:1010E000B1FA81F108430221B1EB601F02D18B48B4
:1010F000006A01E08948406A20210A0392FAA2F2BC
:10110000B2FA82F2114301F01F020121914008401E
:101110000028CCD1207800F0020002284ED17F4870
:10112000406800F00C0050B17C48406800F00C00B2
:10113000082844D17948406800F4803078BB2020EA
:10114000022191FAA1F1B1FA81F108430121B1EB39
:10115000601F02D1714800680FE02020022191FA3F
:10116000A1F1B1FA81F108430221B1EB601F02D174
:101170006A48006A01E06948406A2021022292FA26
:10118000A2F2B2FA82F2114301F01F020121914052
:10119000084028B12069012802D001200FE70EE0A5
:1011A0005E48006820F0F800F82292FAA2F2B2FA43
:1011B00082F26169914008435849086091E02069D2
:1011C000F0B3012090FAA0F1B1FA81F1544A42F84B
:1011D0002100FFF745FC054606E0FFF741FC401BF8
:1011E000022801D90320EAE62020022191FAA1F188
:1011F000B1FA81F108430121B1EB601F02D14748E8
:1012000000680FE02020022191FAA1F1B1FA81F1EA
:1012100008430221B1EB601F02D14048006A01E09F
:101220003E48406A2021022292FAA2F2B2FA82F2E9
:10123000114301F01F02012191400840002800E005
:101240000FE0CAD03548006820F0F800F82292FA82
:10125000A2F2B2FA82F26169914008432F49086014
:101260003FE00020012191FAA1F1B1FA81F12C4A6D
:1012700042F82100FFF7F4FB054606E0FFF7F0FB1C
:10128000401B022801D9032099E62020022191FA6F
:10129000A1F1B1FA81F108430121B1EB601F02D144
:1012A0001E4800680FE02020022191FAA1F1B1FA56
:1012B00081F108430221B1EB601F02D11748006A97
:1012C00001E01648406A2021022292FAA2F2B2FA04
:1012D00082F2114301F01F020121914008400028D1
:1012E000CCD1207800F0080008284BD1A069A8B321
:1012F000012191FAA1F0B0FA80F0094A02EB8000D6
:10130000C0F88014FFF7ACFB05460BE0FFF7A8FB25
:10131000401B022806D9032051E6000000100240BD
:10132000000042426020022191FAA1F1B1FA81F15C
:1013300008430121B1EB601F02D1F948006810E0B9
:101340006020022191FAA1F1B1FA81F10843022152
:10135000B1EB601F03D1F248006A02E013E0F048ED
:10136000406A6021022292FAA2F2B2FA82F211439A
:1013700001F01F020121914008400028C6D0012041
:10138000FFF7B2F941E00020012191FAA1F1B1FA91
:1013900081F1E44A02EB8101C1F88004FFF760FBB0
:1013A000054606E0FFF75CFB401B022801D903203D
:1013B00005E66020022191FAA1F1B1FA81F108431A
:1013C0000121B1EB601F02D1D54800680FE0602019
:1013D000022191FAA1F1B1FA81F108430221B1EBA6
:1013E000601F02D1CE48006A01E0CD48406A60210A
:1013F000022292FAA2F2B2FA82F2114301F01F0223
:101400000121914008400028CCD1207800F0040050
:10141000042875D100BFC248C06940F08050C0495F
:10142000C8610846C06900F08050009000BF00BF4E
:10143000BD48006840F48070BB490860FFF710FBAE
:10144000054606E0FFF70CFB401B642801D903208A
:10145000B5E5B548006800F480700028F2D000BF00
:10146000E068012806D1AE48006A40F00100AC49AE
:10147000086227E0E06858B9A948006A20F0010036
:10148000A74908620846006A20F00400086219E0D3
:10149000E06805280BD1A248006A40F00400A0498A
:1014A00008620846006A40F0010008620AE09C48B1
:1014B000006A20F001009A4908620846006A20F09C
:1014C0000400086200BFE068D0B3FFF7C9FA054620
:1014D00008E0FFF7C5FA401B41F28831884201D984
:1014E00003206CE54020022191FAA1F1B1FA81F1CB
:1014F00008430121B1EB601F03D18948006810E067
:1015000058E04020022191FAA1F1B1FA81F108439B
:101510000221B1EB601F02D18148006A01E08048DE
:10152000406A4021022292FAA2F2B2FA82F21143F8
:1015300001F01F020121914008400028C9D039E084
:10154000FFE7FFF78DFA054608E0FFF789FA401B31
:1015500041F28831884201D9032030E54020022140
:1015600091FAA1F1B1FA81F108430121B1EB601FB9
:1015700002D16B4800680FE04020022191FAA1F1EE
:10158000B1FA81F108430221B1EB601F02D1644836
:10159000006A01E06248406A4021022292FAA2F207
:1015A000B2FA82F2114301F01F020121914008407A
:1015B0000028CAD1E069002873D05948406800F07B
:1015C0000C0008286ED0E06902286CD100204FF092
:1015D000807191FAA1F1B1FA81F1524A42F82100E9
:1015E000FFF73EFA054606E0FFF73AFA401B0228ED
:1015F00001D90320E3E42020010591FAA1F1B1FA19
:1016000081F108430121B1EB601F02D14448006819
:101610000FE02020010591FAA1F1B1FA81F1084310
:101620000221B1EB601F02D13D48006A01E03C4855
:10163000406A20210A0592FAA2F2B2FA82F211431C
:1016400001F01F020121914008400028CCD1206AFE
:10165000B0F5803F07D13248406820F40030A168DF
:1016600008432F494860D4E9080108432C494968D8
:1016700021F4741108432A4948600121080690FAB0
:10168000A0F0B0FA80F0274A42F82010FFF7E8F9FE
:10169000054609E0FFF7E4F9401B022804D90320BE
:1016A0008DE479E076E02CE02020010591FAA1F1AB
:1016B000B1FA81F108430121B1EB601F02D1184852
:1016C00000680FE02020010591FAA1F1B1FA81F143
:1016D00008430221B1EB601F02D11148006A01E00A
:1016E0000F48406A20210A0592FAA2F2B2FA82F269
:1016F000114301F01F020121914008400028C9D088
:101700004AE000204FF0807191FAA1F1B1FA81F125
:10171000044A42F82100FFF7A3F905460DE0000056
:10172000001002400000424200700040FFF798F9AC
:10173000401B022801D9032041E42020010591FA31
:10174000A1F1B1FA81F108430121B1EB601F02D18F
:10175000124800680FE02020010591FAA1F1B1FACA
:1017600081F108430221B1EB601F02D10B48006AEE
:1017700001E00A48406A20210A0592FAA2F2B2FA70
:1017800082F2114301F01F0201219140084000281C
:10179000CCD101E0012012E4002010E4001002404E
:1017A000042808D14FF0E021096941F004014FF00D
:1017B000E022116107E04FF0E021096921F0040106
:1017C0004FF0E0221161704770B504462546681E4F
:1017D000B0F1807F01D301200FE0681E4FF0E021BF
:1017E00048610F214FF0FF3000F0A6FE00204FF0BF
:1017F000E021886107200861002070BD70477047B4
:10180000024600BF92F83800012801D1022070473B
:10181000012082F8380000BF022082F839001068E9
:10182000406820F0700013685860106840680B68CA
:101830001843136858601068806820F080001368AF
:101840009860106880684B6818431368986001209E
:1018500082F8390000BF002082F8380000BF00BFC6
:10186000D5E710B504460CB9012010BD94F8390035
:1018700028B9002084F83800204600F00DF8022036
:1018800084F83900211D206801F0F8FD012084F85A
:1018900039000020E9E7000038B504460D4920680A
:1018A000884215D100BF0C48C06940F010000A49B9
:1018B000C8610846C06900F01000009000BF00BF7A
:1018C000002211463620FFF705F93620FFF7F5F81C
:1018D00038BD0000001000400010024001460868BA
:1018E000C06840F001000A68D0600868006840F0F5
:1018F00001000A68106000207047704710B5044668
:1019000020680069C0F34000D8B12068C068C0F307
:101910004000B0B16FF0020021680861012020761C
:101920002068806900F0030018B12046FFF7E5FF4A
:1019300005E0204600F054F9204600F02FFA002080
:10194000207620680069C0F38000D8B12068C068A4
:10195000C0F38000B0B16FF004002168086102207C
:1019600020762068806900F4407018B12046FFF7A7
:10197000C4FF05E0204600F033F9204600F00EFADF
:101980000020207620680069C0F3C000D8B120682C
:10199000C068C0F3C000B0B16FF0080021680861F2
:1019A000042020762068C06900F0030018B12046AA
:1019B000FFF7A3FF05E0204600F012F9204600F0F3
:1019C000EDF90020207620680069C0F30010D8B13E
:1019D0002068C068C0F30010B0B16FF0100021683B
:1019E0000861082020762068C06900F4407018B1B2
:1019F0002046FFF782FF05E0204600F0F1F8204680
:101A000000F0CCF9002020762068006900F0010089
:101A100058B12068C06800F0010030B16FF00100DB
:101A200021680861204600F0E1F920680069C0F3F0
:101A3000C01058B12068C068C0F3C01030B16FF05A
:101A40008000216808612046FFF7D8FE2068006901
:101A5000C0F3801058B12068C068C0F3801030B166
:101A60006FF0400021680861204600F03BFA2068D2
:101A70000069C0F3401058B12068C068C0F340103E
:101A800030B16FF02000216808612046FFF7B7FEF3
:101A900010BD000010B586B00446002002900390EF
:101AA000049005902068B0F1804F35D100BF4548C3
:101AB000806940F00400434988610846806900F06D
:101AC0000400019000BF00BF00BF0846806940F0DD
:101AD000080088610846806900F00800019000BF96
:101AE00000BF022002900390059002A93648FEF73D
:101AF00009FE4FF48060029002200390059002A935
:101B00003248FEF7FFFD3248406820F4407040F450
:101B100000702F49486053E02E49206888422DD13B
:101B200000BF2848806940F00400264988610846C3
:101B3000806900F00400019000BF00BF00BF0846AC
:101B4000806940F0080088610846806900F008005C
:101B5000019000BF00BFC0200290022003900590BA
:101B600002A91948FEF7CEFD03200290022003903F
:101B7000059002A91548FEF7C5FD21E01649206829
:101B800088421DD100BF0F48806940F020000D49F8
:101B900088610846806900F02000019000BF00BF06
:101BA0004FF47040029002200390059002A90B4868
:101BB000FEF7A8FD0648406840F48050044948609C
:101BC00006B010BD0010024000080140000C0140AA
:101BD00000000140000400400008004000140140E3
:101BE000704770B504460D46164600BF94F838009D
:101BF000012801D1022070BD012084F8380000BF07
:101C0000022084F8390036B1042E1BD0082E31D0C2
:101C10000C2E5ED145E02946206801F085FC206845
:101C2000806940F00800216888612068806920F0A0
:101C30000400216888612068806929690843216857
:101C4000886147E02946206801F0AAFC2068806985
:101C500040F40060216888612068806920F4806019
:101C60002168886120688069296940EA012021682B
:101C700088612FE02946206801F0D2FC2068C06905
:101C800040F008002168C8612068C06920F00400A5
:101C90002168C8612068C069296908432168C86152
:101CA00018E02946206801F0FBFC2068C06940F478
:101CB00000602168C8612068C06920F480602168E4
:101CC000C8612068C069296940EA01202168C861AB
:101CD00000E000BF00BF012084F8390000BF0020F1
:101CE00084F8380000BF00BF85E710B504460CB982
:101CF000012010BD94F8390028B9002084F838007C
:101D0000204600F00DF8022084F83900211D2068DB
:101D100001F0B4FB012084F839000020E9E700005D
:101D200008B50168B1F1804F0DD100BF1849C969EC
:101D300041F00101164AD1611146C96901F0010162
:101D4000009100BF23E0134A016891420DD100BF0A
:101D50000F49C96941F002010D4AD1611146C969B3
:101D600001F00201009100BF11E00B4A01689142AD
:101D70000DD100BF0649C96941F00401044AD1618F
:101D80001146C96901F00401009100BF00BF08BD00
:101D900000100240000400400008004070470000AE
:101DA00030B504460D4601222946206801F0AEFBFD
:101DB0000C492068884203D00B492068884201D131
:101DC000012000E0002028B12068406C40F4004071
:101DD000216848642068006840F0010021680860BC
:101DE000002030BD002C0140003401401FB50446E6
:101DF0002849206888424CD127480078012822D100
:101E000026482749274A0223CDE90032CDE90210AE
:101E1000254B0122194625480078FEF7B8FB2349D7
:101E2000087023482349244A0823CDE90032CDE92C
:101E300002101D4B0422194620480078FEF7A7FB2C
:101E40001E49087025E01448007810BB1C481D4945
:101E50001D4A4FF40063CDE90032CDE90210124B68
:101E60005A15194619480078FEF791FB1749087072
:101E700017481849184A8023CDE90032CDE90210ED
:101E8000164B4022194616480078FEF780FB14498D
:101E900008701FBD00100040780000207F00002067
:101EA0007D0000206800002000180140790000201B
:101EB000800000207E0000206C0000207A000020BE
:101EC0008300002081000020700000207B000020A3
:101ED00084000020820000207400002000100140D7
:101EE0007C00002070477047014691F83900704728
:101EF000F8B50446002500262068006800F00105BA
:101F00002068C06800F4807625B11EB1E06B40F017
:101F10000100E06320680068C0F340052068406964
:101F200000F0010625B11EB1E06B40F00400E06353
:101F300020680068C0F3800525B11EB1E06B40F059
:101F40000200E06320680068C0F3C00525B11EB13F
:101F5000E06B40F00800E06320680068C0F34015C3
:101F60002068C06800F020061DB116B1204601F0BF
:101F7000DBFB20680068C0F3C0152068C06800F073
:101F800080061DB116B1204601F010FD20680068E2
:101F9000C0F380152068C06800F040061DB116B17E
:101FA000204601F0A9FBE06B70B100BF206800681B
:101FB000009020684068009000BF00BF012084F8B6
:101FC00039002046FFF78FFFF8BD10B504460CB965
:101FD000012010BDA06900B100E000BF94F83900F5
:101FE00028B9002084F83800204600F025F80220A7
:101FF00084F839002068C06820F400502168C86067
:10200000204601F0EFFB2068006920F49040216831
:1020100008612068406920F02A0021684861206832
:10202000C06840F400502168C8600020E0630120CF
:1020300084F839000020CCE710B586B00446254965
:102040002068884244D100BF2348806940F00400E2
:10205000214988610846806900F00400019000BFB2
:1020600000BF00BF0846806940F480408861084690
:10207000806900F48040019000BF00BF00BF0846A7
:10208000806940F0010088610846806900F0010025
:10209000019000BF00BF481502900220039001206C
:1020A00004900320059002A90C48FEF72BFB4FF487
:1020B000806002900020039002A90848FEF722FBEE
:1020C0002520FEF7FAFC032211462520FEF702FD2B
:1020D00006B010BD00380140001002400008014069
:1020E00030B50346002493F83940012C01D0122C5E
:1020F00037D101B10AB9012030BD00BF93F83800D3
:10210000012801D10220F7E7012083F8380000BF41
:1021100099629A85DA850020D86393F839001228ED
:1021200003D1322083F8390002E0222083F83900FD
:1021300000BF002083F8380000BF1868C06840F472
:1021400080701D68E8601868406940F001001D68F3
:1021500068611868C06840F020001D68E8600020D1
:10216000CAE70220C8E700001D4A0168914236D143
:102170001C49098801F4004189BB1A49098801F406
:10218000804171B1184909780A2903D00021154A04
:10219000118024E01349098841F40041114A11805B
:1021A0001DE0114909780D2906D10E49098841F42D
:1021B00080410C4A118012E00B490978094A1288C3
:1021C000C2F30D02094B995406490988491C054A76
:1021D000118011460988C72901DD0021118070474F
:1021E000003801401400002016000020880C002058
:1021F000704700BFFEE7000000B585B000BF1B4878
:10220000806940F00800194988610846806900F03B
:102210000800009000BF00BF00BF0846806940F082
:10222000400088610846806900F04000009000BFCF
:1022300000BF202001900120029003900320049011
:1022400001A90B48FEF75EFA2020019001A9094878
:10225000FEF758FA012220210548FEF7FBFB012278
:1022600020210448FEF7F6FB05B000BD0010024037
:10227000000C01400018014000B585B0002001901D
:1022800002900390049000BF3448806940F0400001
:10229000324988610846806900F04000009000BF24
:1022A00000BF00BF0846806940F00400886108460E
:1022B000806900F00400009000BF00BF00BF084626
:1022C000806940F0080088610846806900F00800D5
:1022D000009000BF00BF00BF0846806940F02000AA
:1022E00088610846806900F02000009000BF00BFB0
:1022F00000BF0846806940F0100088610846806988
:1023000000F01000009000BF00BF40F60F200190C9
:1023100000200290039001A91148FEF7F3F90F2065
:102320000190002002900220039001A90D48FEF7C1
:10233000E9F9C020019000200290039001A909480A
:10234000FEF7E0F90B20019000200290022003909C
:1023500001A90548FEF7D6F905B000BD00100240FE
:1023600000180140001001400014014000B589B080
:102370000020079008901C216846FEF70BF84FF0EC
:10238000804014490860472048600021114881605E
:102390006321C16000210161FFF7A7FC00200790C5
:1023A000089007A90B48FFF72BFA60200090002047
:1023B000019002900490042269460648FFF711FC40
:1023C000082269460348FFF70CFC0248FFF762FB4E
:1023D00009B000BD500E002000B589B00020079064
:1023E00008901C216846FDF7D5FF1A481A49086075
:1023F000472048600021184881606321C1600021A6
:102400000161FFF772FC00200790089007A91248AD
:10241000FFF7F6F9602000900020019002900490F0
:10242000002269460C48FFF7DCFB042269460A4893
:10243000FFF7D7FB082269460748FFF7D2FB0C22BB
:1024400069460548FFF7CDFB0348FFF723FB09B0BA
:1024500000BD0000000400408C0E002000B589B0D3
:102460000020079008901C216846FDF793FF1A484A
:102470001A4908604720486000211848816063219C
:10248000C16000210161FFF730FC00200790089037
:1024900007A91248FFF7B4F96020009000200190CE
:1024A00002900490002269460C48FFF79AFB042230
:1024B00069460A48FFF795FB082269460748FFF777
:1024C00090FB0C2269460548FFF78BFB0348FFF79A
:1024D000E1FA09B000BD000000080040C80E00206D
:1024E0001CB50020009001900B480C490860472063
:1024F00048600021094881606421C160FFF7B1F99B
:1025000000200090019069460448FFF779F90348DC
:10251000FFF7E4F91CBD000000100040040F00208C
:1025200000BFFEE77047000002480068C0F30220C9
:10253000704700000CED00E010B5002807DA0A072C
:10254000140E054A00F00F031B1FD45403E00A07C2
:10255000130E024A135410BD18ED00E000E400E031
:1025600010B500F013F800F07BFC00F0A7FC00F0C1
:10257000C7FC00F045FC00F005FC00F05BFD00F03E
:10258000FFFC00F025FD00F019F810BD084880217F
:1025900002E0491E002204C00029FAD1054A064B78
:1025A0001A601A46126822F007021A60704700008B
:1025B000601E0020602000206400002070470000A2
:1025C00006480078012808D105480078FF2804D281
:1025D00003480078401C0249087070473E00002004
:1025E0003100002010B500241A480078012830D1AD
:1025F000FDF70EFE04461848007820B11648007812
:10260000401E1549087014480078F8B9134800783E
:10261000E0B900F071FD12481249097850F8210024
:10262000114908600F4800781049097888420DD098
:102630000D480068C06B401C0B490968C8630C4812
:102640000068401C0A490860FDF702FE2046FDF7BD
:10265000E3FD10BD3E0000203100002032000020CC
:1026600070150020340000204C00002033000020B2
:102670001800002010B50B48007890B900F03CFD20
:10268000094800780949087009480749097850F84D
:102690002100084908600846006807490860FDF7FE
:1026A000BEFD10BD3E00002034000020330000209D
:1026B000701500204C0000204400002010B50024BC
:1026C000022000F073FAFDF7A3FD044600200B4939
:1026D00008602046FDF7A0FD642000F067FAFDF7D2
:1026E00097FD044605480068054908600120054932
:1026F00008702046FDF790FD10BD0000400000204E
:10270000280000203000002010B504462046FDF7C8
:10271000CDFE10BD2DE9F04F85B081468A46934627
:102720001C46DDE90F78129D00200390FDF770FD37
:1027300003902348007830B10398FDF76DFD3C20ED
:1027400005B0BDE8F08F1F4850F8240088BB012079
:102750001C4941F824000398FDF75EFD2A464146D6
:10276000384600F00DFE2B465A465146484600F0CA
:1027700073F904901198CDE9008002953A462046FD
:102780000E9B049900F0CEFC064636B90E48007840
:1027900001280CD100F076FC09E0FDF739FD03902B
:1027A0000020084941F824000398FDF735FD304624
:1027B000C6E7FFE70398FDF72FFD2820C0E70000DC
:1027C00031000020701500203E00002010B50446A6
:1027D0002046FDF76CFE10BD2DE9F04105460027AF
:1027E0004A48007810B14020BDE8F0813F2D01D16A
:1027F0003E20F9E7FDF70CFD0746FF2D03D14448C5
:10280000006890F83650434850F8254024B93846BF
:10281000FDF702FD4320E7E7012C04D13846FDF720
:10282000FBFC3D20E0E714F8380F3B49085C617879
:1028300088432178384A505414F838091146085C06
:1028400030B994F83A103548007888433349087015
:10285000E06918B12046E16900F05FFA206A18B11A
:102860002046216A00F070FAA66A16B1304600F0E0
:10287000B5FA0020206384F8340084F83500284835
:102880000078FF2804D226480078401C24490870AC
:102890003846FDF7C1FC00F03FFAFDF7B9FC0746EA
:1028A0001F48007820B11E480078401E1C4908705F
:1028B000204600F041F81B480078401E1949087076
:1028C0000020144941F82500A06930B90020616951
:1028D000886115496069086005E0D4E9050148612F
:1028E000D4E9051088611148006860610F480460F0
:1028F0000FA020653846FDF78FFC0E4800780128B0
:1029000001D100F0BFFB00206EE700003100002085
:102910004400002070150020360000203500002003
:10292000320000203F00002050000020480000201E
:102930003F0000003E00002010B504462046FDF791
:10294000B7FD10BD10B5FDF7B4FD10BD2DE9F04188
:1029500006460F4614464FF000081548007818B197
:1029600012202070BDE8F081FDF752FC8046FF2E5A
:1029700003D11048006890F836600F4850F8265090
:102980002DB94046FDF748FC43202070EAE7012DB1
:1029900005D14046FDF740FC43202070E2E72F655B
:1029A0004046FDF739FC0020207000BFDAE7000048
:1029B00031000020440000207015002010B50446AE
:1029C0002046FDF777FD10BD10B5FDF774FD10BD75
:1029D0002DE9F04707460D464FF0000A0020286019
:1029E0006860FDF715FC8246FF2F03D11848006888
:1029F00090F83670174850F827402CB95046FDF72C
:102A00000BFC4320BDE8F087012C04D15046FDF7B4
:102A100003FC4320F6E7207C00F0010020B950467B
:102A2000FDF7FAFB4520EDE70026D4F80C90D4F82A
:102A300008805046FDF7F0FB00E0761C58F8041BB8
:102A40000029FAD02E60A9EB060068600020D9E7C3
:102A5000440000207015002070B50446101D20F0C1
:102A600007004FF08076051F28462E60051F284678
:102A70002C60214E051F28462E604FF01236051F90
:102A800028462E604FF00336051F28462E604FF073
:102A90000236051F28462E607610051F28462E6038
:102AA000051F284629604FF01136051F28462E6065
:102AB0004FF01036051F28462E604FF00936051FCF
:102AC00028462E604FF00836051F28462E604FF02E
:102AD0000736051F28462E604FF00636051F28468C
:102AE0002E604FF00536051F28462E604FF0043645
:102AF000051F28462E6070BD8D3200082DE9F0417B
:102B000005464FF00008FDF783FB8046FF2D05D1F9
:102B10002048006890F83650012608E01D480068FB
:102B200090F83600A84201D1012600E000261A489C
:102B300050F825402CB94046FDF76EFB4820BDE813
:102B4000F081012C04D14046FDF766FB4320F6E7F7
:102B500094F838701148C05D94F8391088430F49D3
:102B6000C8550846C05D30B994F83A100C48007852
:102B700088430B49087094F8340040F0080084F84A
:102B800034004046FDF748FB012E01D100F07AFAEF
:102B90000020D4E7440000207015002036000020FB
:102BA0003500002010B5FDF787FC10BD70B5054657
:102BB00000261748007800B170BD1648007800B1B3
:102BC000FAE71DB3FDF724FB06461348006890F8AA
:102BD00038401248005D1049096891F8391088435F
:102BE0000E4908550846005D40B90B48006890F84A
:102BF0003A100B4800788843094908700648006875
:102C000005633046FDF708FB00F03CFA00BFD3E750
:102C10003100002032000020440000203600002057
:102C20003500002070B5002600F072F8FDF7F0FACC
:102C3000064631480068401C2F4908603046FDF7C1
:102C4000EBFA2E480078012853D12D48007820B1A6
:102C5000012804D0022809D103E001250BE000255A
:102C600009E0012501202649087004E00125002023
:102C70002349087000BF00BF05B970BD2148046832
:102C800033E0FDF7C5FA0646206B50B3206B401EBB
:102C90002063206B28BB94F8340000F0370040B16B
:102CA00014F8340F00F0C800207001206070343C2C
:102CB00002E0002084F8350094F8340000F00800A9
:102CC00078B93834A0781049097808430E4908705B
:102CD00020780E49085C6178084314F838190B4ACB
:102CE000505464693046FDF797FA94F836003F284F
:102CF000C7D100BFC1E70000600000203E000020F7
:102D00005400002050000020350000203600002034
:102D100010B5FDF7D2FB10BD704710B590F8382004
:102D200001F10B039B5C90F83940A34301F10B04C4
:102D3000A35423469B5C23B98B7A90F83A40A34373
:102D40008B720023C36110BDF0B5024612F8384FF4
:102D500095785678383A0B4618680FE000F10B0763
:102D60003F5DB74300F10B0C0CF8047067463F5D04
:102D700017B9877AAF4387721B1D18680028EDD1F9
:102D8000F0BD00002DE9F0415021114800F048F954
:102D900000250DE0681C86B20D4800EB051400EB21
:102DA00006170020207067600AA0E060681C85B2EA
:102DB000042DEFD3064800EB05140020207060605E
:102DC00004A0E060024804490860BDE8F08100000A
:102DD000201100203F0000002000002030B50146F7
:102DE0004A6808682AB9CC68606028B10025456047
:102DF00002E0106000B142608B6800259D6230BD2A
:102E000070B54FF4F071134800F00AF9002411E096
:102E1000601C85B204EB44000E4901EBC00305EBD6
:102E2000450001EBC006002018705E600AA05861E2
:102E3000601C84B2132CEBD304EB4400054901EB76
:102E4000C00300201870586003A058610846034969
:102E5000086070BD400F00203F0000001C000020F3
:102E600000200B4908600B4908700B4908700B499A
:102E700008700B4908700B4908600B4908600B4942
:102E800008600B4908600B4908700B4908707047CF
:102E90006000002031000020320000203F000020B0
:102EA0003E00002018000020400000202C000020E0
:102EB00028000020300000205C00002000210A4A89
:102EC0001170002004E00021084A1154411CC8B2CE
:102ED0000828F8D30021064A1170064A1170064AE4
:102EE0001160064A1160704735000020360000204E
:102EF00033000020340000204C000020440000205B
:102F000070B54FF4F261194800F08AF84FF48071FF
:102F1000174800F085F8002413E0601CC5B204EBEC
:102F2000440000EBC400114901EBC00305EB450070
:102F300000EBC50001EBC0065E610EA01865601CC9
:102F4000C4B2152CE9D304EB440000EBC4000749DC
:102F500001EBC0030020586106A018650020064957
:102F6000086002480549086070BD00007016002026
:102F7000701500203F000000500000204800002095
:102F800000B587B00320002180220A4BCDE9013231
:102F9000CDE903104FF6FF703F23074A0090074822
:102FA000FFF7B8FB06AA06A13F20FFF7CFFC07B04A
:102FB00000BD0000701300206C1500206532000871
:102FC00075432F4F532D49492049646C650000001B
:102FD00000B587B00320002180220A4BCDE90132E1
:102FE000CDE903104FF6FE703E23074A00900748D4
:102FF000FFF790FB06AA06A13E20FFF7A7FC07B04B
:1030000000BD0000701100206C130020A5320008E4
:1030100075432F4F532D49492053746174000000AC
:1030200004E0002200F8012B4A1E91B20029F8D1D9
:10303000704700002DE9F04160211048FFF7F0FFD4
:1030400000240DE0601C86B204EB44000B4901EB48
:10305000C00506EB460001EBC0072F60601C84B280
:10306000032CEFD304EB4400044901EBC00500201E
:103070002860084602490860BDE8F081001E002073
:103080005800002010B50024FDF7C2F8044613488C
:103090000078F8B912480078E0B900F02DF811482E
:1030A0001149097850F82100104908600E4800784D
:1030B0000F49097888420DD00C480068C06B401C4D
:1030C0000A490968C8630B480068401C0949086040
:1030D000FDF7B9F82046FDF79FF810BD310000203C
:1030E0003200002070150020340000204C00002029
:1030F00033000020180000200649074A1278885C37
:103100000649095C034A515C01EBC001044A117095
:1031100070470000203D00083500002036000020E8
:10312000340000202DE9F84F05460F469046994699
:10313000DDE90AAB00200090FDF76AF800904248F4
:103140000468002C7BD01C3454F8080C3E490860FD
:103150000098FDF761F844F81C7CA57600202076E5
:103160006076606144F818BC44F810AC44F8148CE4
:103170000C9824F80C0C24F80A9C0020E077E81046
:10318000207705F00700E076217F01208840A077B6
:10319000E17E012088406077002020606060E06070
:1031A000A0602062A0626062E062206327A060638A
:1031B0001C3C002606E0002104F1540040F82610D3
:1031C000701CC6B2002EF6D02046FFF79DFAFDF720
:1031D0001FF800901E4840F825400098FDF71CF8A5
:1031E0002046FFF7F3FAFDF713F80090194800683E
:1031F00060610020A0611748006810B115480068A0
:103200008461144804603834A0781349097808436D
:103210001149087020781149085C6178084314F856
:1032200038190E4A50540E480078401C0C4908705A
:103230000098FCF7F1FF0020BDE8F88FFFE7009849
:10324000FCF7EAFF4220F7E7480000203F000000BB
:1032500070150020500000203500002036000020AE
:103260003F000020002400BF00BFFCF7D1FF044650
:1032700005480068401C044908602046FCF7CCFF64
:10328000FFF760FBF1E700004000002010B50448A4
:103290000068FFF793FBFF20FFF79EFA10BD0000C8
:1032A0004400002000BF00BF02E0C820FFF77EFC02
:1032B0001F4800780028F8D01E4800686421B0FB41
:1032C000F1F01C4908600846006828B900201A4936
:1032D0000870FF20FFF712FCFCF79AFF0446154820
:1032E000006864214843154908602046FCF794FFB4
:1032F00000BFFCF78DFF04461048006810490860C5
:1033000000200E4908602046FCF786FF0C48006844
:1033100008490968B0FBF1F0C0F164000649087083
:10332000FFF752FB00F00EF86420FFF73FFCE0E7E8
:103330003000002028000020240000204000002051
:103340002C0000207CB5002514E069462846FFF7D4
:103350003FFB064666B9094850F8254044B1012CA8
:1033600006D0D4E9020100EB8100A0640198E0647A
:10337000681CC5B23F2DE8D97CBD00007015002047
:1033800002F0010343B102F002032BB102E0491E37
:10339000002308C00029FAD17047416801617047D5
:1033A000704730B58FB00546002401200590000419
:1033B00006900020079002200C90C1030D910E95FD
:1033C00005A8FDF7B1FD04460CB100BFFEE70F20D4
:1033D000009002200190002002904FF48060039042
:1033E0000020049002216846FDF7C6FB04460CB19C
:1033F00000BFFEE70FB030BD10B5054800780128CA
:1034000005D1FFF7DDF8FFF70DFCFFF7EBF810BD76
:103410003E0000201148006840F001000F4908609C
:10342000084640680E4908400C4948600846006854
:103430000C490840094908600846006820F48020CB
:1034400008600846406820F4FE0048604FF41F0002
:103450008860C803044908607047000000100240FB
:103460000000FFF8FFFFF6FE08ED00E010B502488F
:10347000FEF744FA10BD0000040F0020002202688D
:103480001D4B98420ED01D4B98420BD0B0F1804F8F
:1034900008D01B4B984205D01A4B984202D01A4BC9
:1034A000984203D122F070024B681A43124B9842A3
:1034B0000ED0124B98420BD0B0F1804F08D0104B79
:1034C000984205D00F4B984202D00F4B984203D13F
:1034D00022F44072CB681A4302608B68C3620B68A7
:1034E0008362054B984202D0044B984201D10B698C
:1034F0000363012343617047002C01400034014005
:103500000004004000080040000C004030B50023DB
:10351000012404FA01F3046A9C430462046A02FA77
:1035200001F52C43046230BD30B500240022002395
:10353000056A25F001050562026A4368846924F082
:10354000700424F003040D682C4322F002028D68FD
:103550002A43114DA84200D103E0104DA84206D1E4
:1035600000BF22F00802CD682A4322F004020A4D6F
:10357000A84202D0094DA84207D123F4807323F456
:1035800000734D692B438D692B43436084614D6803
:103590004563026230BD0000002C01400034014050
:1035A00030B5002400220023056A25F010050562CD
:1035B000026A4368846924F4E04424F440740D688A
:1035C00044EA052422F020028D6842EA0512124DD9
:1035D000A84200D103E0114DA84207D100BF22F05C
:1035E0008002CD6842EA051222F040020A4DA8424C
:1035F00002D00A4DA84209D123F4806323F400636A
:103600004D6943EA85038D6943EA8503436084611C
:103610004D688563026230BD002C014000340140DA
:1036200030B5002400220023056A25F48075056268
:10363000026A4368C46924F0700424F003040D682E
:103640002C4322F400728D6842EA0522124DA842F2
:1036500000D103E0114DA84207D100BF22F400625F
:10366000CD6842EA052222F480620B4DA84202D0C6
:103670000A4DA84209D123F4805323F400534D6925
:1036800043EA05138D6943EA05134360C4614D683D
:10369000C563026230BD0000002C014000340140CF
:1036A00030B5002200230024056A25F48055056208
:1036B000036A4468C26922F4E04222F440720D6851
:1036C00042EA052223F400538D6843EA0533084D8E
:1036D000A84202D0074DA84204D124F480444D6989
:1036E00044EA85144460C2614D680564036230BDDC
:1036F000002C01400034014010B504462068C06829
:1037000020F040002168C86094F83900322803D1C5
:10371000222084F8390002E0012084F83900204694
:10372000FEF766FD002010BD70B50446002694F833
:103730003960222E01D0322E52D1A068B0F5805FC0
:1037400013D1A56A206940B920684068C0F3080019
:103750002880A06A801CA06219E020684068C0B27E
:103760002880A06A401CA06211E0206938B9206856
:103770004068C1B2A26A501CA062117007E02068C4
:10378000406800F07F01A26A501CA0621170E08DB9
:10379000401E80B2E08508BB2068C06820F0200091
:1037A0002168C86094F83900322803D1122084F8C7
:1037B00039000EE02068C06820F480702168C8607D
:1037C0002068406920F0010021684861012084F8E8
:1037D00039002046FEF7C8FC002070BD0020FCE741
:1037E0000220FAE72DE9F04104460025206800692F
:1037F00020F44050E1680843216808612169A0680D
:103800000843616940EA01052068C06841F20C6123
:10381000884328432168C8602068406920F44070CC
:10382000A1690843216848615F49206888425CD1EA
:10383000FDF70AFB00EBC00101EB00106168890095
:10384000B0FBF1F6FDF700FB00EBC00101EB00104F
:1038500061688900B0FBF1F06421B0FBF1F000EB8E
:10386000C00101EB0010A6EB8000322101EB00103B
:103870006421B0FBF1F000F0F006FDF7E5FA00EB93
:10388000C00101EB001061688900B0FBF1F0642118
:10389000B0FBF1F006EB0016FDF7D6FA00EBC00125
:1038A00001EB001061688900B0FBF1F7FDF7CCFA7D
:1038B00000EBC00101EB001061688900B0FBF1F082
:1038C0006421B0FBF1F000EBC00101EB0010A7EBAD
:1038D0008000322101EB00106421B0FBF1F000F018
:1038E0000F003044216888605BE0FDF797FA00EB39
:1038F000C00101EB001061688900B0FBF1F6FDF733
:103900008DFA00EBC00101EB001061688900B0FB8B
:10391000F1F06421B0FBF1F000EBC00101EB00100D
:10392000A6EB8000322101EB00106421B0FBF1F026
:1039300000F0F006FDF772FA00EBC00101EB001099
:1039400061688900B0FBF1F06421B0FBF1F006EB97
:103950000016FDF763FA00EBC00101EB001061688F
:103960008900B0FBF1F7FDF759FA00EBC00101EB5C
:10397000001061688900B0FBF1F06421B0FBF1F048
:1039800000EBC00101EB0010A7EB8000322101EB3E
:1039900000106421B0FBF1F000F00F00304421680A
:1039A0008860BDE8F08100000038014010B5014694
:1039B000002391F83930122B01D0322B2CD188689A
:1039C000B0F5805F0FD10A6A1088C0F308000C6858
:1039D0006060086918B9086A801C086209E0086A12
:1039E000401C086205E00C6A601C086220780C68C4
:1039F0006060C88C401E80B2C88458B90868C0682E
:103A000020F080000C68E0600868C06840F040006A
:103A10000C68E060002010BD0220FCE710B5002417
:103A2000FEF7CEFD0D48FEF763FA00BF01E0641C0F
:103A300000BF0A48FEF758FA0128F8D100BF002459
:103A400001E0641C00BF012205490448FEF748FB61
:103A50000028F6D100BFFEF7C5FD10BD500D0020B7
:103A60001600002000BFFEE700BF704770B5044697
:103A70000420FDF795FE0C48046025464FF47A704B
:103A800045430120094908804FF0E020006940F0DB
:103A900002004FF0E021086108464561006940F0EE
:103AA0000100086170BD0000080000200C0000202B
:103AB00000BF054A126802F04002002AF9D0C2B2E3
:103AC000014B1B1D1A6070470038014000B585B0DE
:103AD000FCF7CCFF4FF4E010FFF763FC4820FFF742
:103AE000C5FFFEF789FB4FF4E13000F0F1F8FEF777
:103AF000C3FB0CA0FCF7E6FBFEF732FD072000211C
:103B000080220C4BCDE90132CDE903100A20034697
:103B1000094A00900948FEF7FDFDFEF7ABFD0020C5
:103B200005B000BD7561727420696E6974206F6B99
:103B30000D0A00008800002084020020593C000883
:103B4000704710B5FCF7EAFC10BDFFF7FAFF04E080
:103B5000FFF7F6FF3220FFF729F8F9E738B5002420
:103B600000BF34E0E0B2FCF765FD0546194900905E
:103B700001EB441000221346FCF7A2FC002825D0DC
:103B80000620FCF757FD002820D0062C1CD2DFE8C9
:103B900004F003070B0F13170FA0FCF793FB14E0BF
:103BA0000FA0FCF78FFB10E00FA0FCF78BFB0CE0E5
:103BB0000FA0FCF787FB08E00FA0FCF783FB04E0F5
:103BC00010A0FCF77FFB00E000BF00BF641C062CC8
:103BD000C8DB38BD900D0020C9FD0D0A00000000B3
:103BE000BDB50D0A00000000BFAA0D0A00000000CC
:103BF000BACF0D0A00000000CDD0BED9C9FD0D0A14
:103C000000000000CDD0BED9BDB5B5CD0D0A000075
:103C100010B5002400BF0FE00120094901EB441159
:103C200008700320064901EB44114860044901EB88
:103C30004410FFF7B2FB641C062CEDDB10BD000046
:103C4000900D0020FFF7E4FF04E0FFF787FF14204A
:103C5000FEF7ACFFF9E7000030B585B0044600255B
:103C600000BFFEF72BFDFCF7D3FA05460720002125
:103C70004FF40072104BCDE90310CDE901320090F2
:103C800003460E4A0E48FEF745FD0720002180221C
:103C90000C4BCDE90132CDE90310062003460A4A58
:103CA00000900A48FEF736FD2846FCF7B5FA0A20D0
:103CB000FEF724FF05B030BD88020020840A0020F2
:103CC0004B3B0008880A0020840C0020453C00087B
:103CD00010B5044609480A490860084644600021B6
:103CE0008160C160016181610C214161FEF76DF964
:103CF000012204490248FEF7F3F910BD00380140E3
:103D0000500D002016000020000000000000000000
:103D10000102030406070809000000000102030471
:103D20000000010002000100030001000200010088
:103D30000400010002000100030001000200010074
:103D40000500010002000100030001000200010063
:103D50000400010002000100030001000200010054
:103D60000600010002000100030001000200010042
:103D70000400010002000100030001000200010034
:103D80000500010002000100030001000200010023
:103D90000400010002000100030001000200010014
:103DA0000700010002000100030001000200010001
:103DB00004000100020001000300010002000100F4
:103DC00005000100020001000300010002000100E3
:103DD00004000100020001000300010002000100D4
:103DE00006000100020001000300010002000100C2
:103DF00004000100020001000300010002000100B4
:103E000005000100020001000300010002000100A2
:103E10000400010002000100030001000200010093
:103E2000403E000800000020880000006C010008EF
:103E3000C83E0008880000203826000088010008DD
:103E400000A24A0400000000000000000000000082
:103E50000000000000000000000000000000000062
:103E60000000000000000000000000000000000052
:103E70000000000000000000000000000000000042
:103E80000000000000000000000000000000000032
:103E90000000000000000000000000000000000022
:103EA0000000000000000000000000000000000012
:103EB00000000000000000000300000000000000FF
:083EC0000000000000000000FA
:0400000508000131BD
:00000001FF
