:020000040800F2
:10000000D8260020D50100084128000873240008E4
:100010003D2800084D060008A93D0008000000002A
:10002000000000000000000000000000B7360008DB
:1000300061070008000000005F0200083D3700086B
:10004000EF010008EF010008EF010008EF010008D0
:10005000EF010008EF010008EF010008EF010008C0
:10006000EF010008EF010008EF010008EF010008B0
:10007000EF010008EF010008EF010008EF010008A0
:10008000EF010008EF010008EF010008EF01000890
:10009000EF010008EF010008EF010008EF01000880
:1000A000EF010008EF010008EF010008EF01000870
:1000B000EF010008EF010008EF010008EF01000860
:1000C000EF010008EF010008EF010008EF01000850
:1000D000EF010008613D0008EF010008EF01000892
:1000E000EF010008EF010008EF010008EF01000830
:1000F000EF010008EF010008EF010008EF01000820
:10010000EF010008EF010008EF010008EF0100080F
:10011000EF010008EF010008B1370008EF01000807
:10012000EF010008EF010008EF010008EF010008EF
:1001300000F002F800F03FF80AA090E8000C8244BA
:100140008344AAF10107DA4501D100F034F8AFF297
:10015000090EBAE80F0013F0010F18BFFB1A43F0A5
:1001600001031847104B0000304B0000103A24BF29
:1001700078C878C1FAD8520724BF30C830C144BF0C
:1001800004680C607047000000230024002500264E
:10019000103A28BF78C1FBD8520728BF30C148BFEA
:1001A0000B607047642900F09B80002070471FB5EA
:1001B0001FBD10B510BD00F00FFA1146FFF7F7FF95
:1001C00003F024FF00F02DFA03B4FFF7F2FF03BCA5
:1001D00003F04CFE0948804709480047FEE7FEE768
:1001E000FEE7FEE7FEE7FEE7FEE7FEE7FEE7FEE7E7
:1001F00004480549054A064B704700005937000876
:1002000031010008D8200020D8260020D822002064
:10021000D8220020EFF3108072B6704780F3108868
:1002200070471F484FF6FF710170002080F3098866
:100230001C48016881F308881B48012101701B4894
:100240004FF08051016062B6FEE718484FF08051D0
:100250000160704715484FF080510160704772B6D9
:10026000EFF3098028B1203880E8F00F10490968C1
:10027000086000B50F4880475DF804EB0E480F4951
:100280000A7802700A480E490A680260106890E80D
:10029000F00F203080F309884EF0F40E62B67047FC
:1002A00022ED00E0640000203E00002004ED00E0AC
:1002B00044000020C12E000833000020340000203C
:1002C0004C000020704700000FB4044910B503AA89
:1002D000029800F053F910BC5DF814FB10000020E8
:1002E0002DE9F0410646002410687529314616A50F
:1002F00010D0AFF30080002802DA404213A507E0D7
:1003000031688A0701D512A502E0490704D511A575
:10031000012401E0AFF3008000210A2206F1240746
:1003200009E0B0FBF2FCB0FBF2F302FB1C00303042
:1003300078541846491C0028F3D123462A463046F3
:10034000BDE8F04100F0C1B8000000002D00000041
:100350002B000000200000002DE9F0410F4605466B
:10036000002028622846E968884770B3252805D010
:10037000D5E901219047286A401CF2E7E968284640
:10038000002688476C2804460AD0682C08D04C2CDC
:1003900035D06A2C31D0742C31D07A2C2FD016E085
:1003A000E968064628468847B042044608D16C2EC4
:1003B00023D04FF480662846E9688847044606E063
:1003C0006C2E03D04FF4807601E01EE04026E4B1AD
:1003D000A4F14100192802D8203446F400663A46B8
:1003E000214628462E60FFF7DDFE60B1012808D0C7
:1003F000FF1D27F007070837B4E78026DBE7002654
:10040000D9E73F1DAEE72046B2E7286ABDE8F08194
:1004100010B5203AC0F00B80B1E81850203AA0E89F
:100420001850B1E81850A0E81850BFF4F5AF5FEAD3
:10043000027C24BFB1E81850A0E8185044BF18C986
:1004400018C0BDE810405FEA827C24BF51F8043B2D
:1004500040F8043B08BF7047D20728BF31F8023B81
:1004600048BF11F8012B28BF20F8023B48BF00F815
:10047000012B70474FF0000200B513469446964694
:10048000203922BFA0E80C50A0E80C50B1F12001A7
:10049000BFF4F7AF090728BFA0E80C5048BF0CC055
:1004A0005DF804EB890028BF40F8042B08BF7047B3
:1004B00048BF20F8022B11F0804F18BF00F8012B25
:1004C000704770477047704770472DE9F0470D46F9
:1004D00099469246044600F124080168880604D52E
:1004E000E06921F01001216000E00120A84201DD57
:1004F000471B00E00027A1697A1902EB0900081ADE
:10050000A0612078C00602D42046AFF30080002608
:1005100008E0D4E901211AF806009047206A401C3F
:10052000761C20624E45F4DB2078C0060AD52046B2
:10053000AFF3008006E0D4E9012130209047206A23
:10054000401C2062381EA7F10107F4DC07E0D4E963
:10055000012118F805009047206A401C2062281EDF
:10056000A5F10105F3DC2046AFF3008020780006FA
:1005700002D50220BDE8F0870120FBE7074B70B5EC
:100580000D467B4400F011F80446284600F020F8A0
:1005900010B14FF0FF3070BD204670BD373A0000FB
:1005A00001694A1C02610878704700B58FB0CDE937
:1005B00001310021059105497944CDE90310114627
:1005C0006846FFF7C9FE0FB000BD0000E5FFFFFF62
:1005D000007B00F080007047754600F02BF8AE46B7
:1005E00005006946534620F00700854618B020B53F
:1005F000FFF7FEFDBDE820404FF000064FF000077A
:100600004FF000084FF0000B21F00701AC46ACE8BA
:10061000C009ACE8C009ACE8C009ACE8C0098D4627
:10062000704710B50446AFF300802046BDE8104087
:10063000FFF7CABD00487047782000207047704718
:1006400070477047704770477047704700BFFEE7BC
:1006500070B505460C461646642C00DD64240E4831
:10066000007801280AD132460021284603F09EFB7B
:1006700032462146284603F0C9FB0BE0C4F1640072
:10068000C1B23246284603F091FB32466421284627
:1006900003F0BCFB70BD00001700002070B50546DC
:1006A0000C461646642C00DD64240E4800780128B0
:1006B0000AD132462146284603F078FB3246002113
:1006C000284603F0A3FB0BE032466421284603F0E2
:1006D0006DFBC4F16400C1B23246284603F096FBBC
:1006E00070BD00001700002010B501F05DFF01F0A3
:1006F00093FF01F0C7FF02F007F802F047F802F09D
:1007000065F80421134801F0C9FC0821114801F0E3
:10071000C5FC0021104801F0C1FC04210E4801F085
:10072000BDFC00210D4801F0B9FC04210B4801F08B
:10073000B5FC0821094801F0B1FC0C21074801F083
:10074000ADFC0821044801F0A9FC0C21024801F08D
:10075000A5FC10BDCC0D0020080E0020440E00208A
:1007600070472DE9F05F0446884691469A46DDE9D8
:100770000AB7DDE90C563CB94946404600F0F0F9AD
:1007800001283DD102243BE0022C0BD159465046B2
:1007900000F0E6F910B90120287001E00120307066
:1007A00003242DE0032C06D14946404600F0D8F939
:1007B00030BB052424E0052C22D15946504600F0D8
:1007C000CFF9012809D12878012806D10020287006
:1007D00030703868401C386011E05946504600F0CF
:1007E000BFF948B93078012806D100202870307050
:1007F0003868401E386002E0002028703070002405
:100800002046BDE8F09F31B5002400F0B7F904465A
:1008100000BF00F0B3F9001B00998842F9D338BD3E
:100820002DE9F847024600240020002584460027D1
:1008300000237BE14FF0010808FA03F4D1F80080AF
:1008400008EA0400A0427DD1DFF8ECA2D1F80480D0
:10085000A8EB0A09D0453AD014DCB8F1030F50D008
:1008600009DCB8F1000F31D0B8F1010F1CD0B8F19C
:10087000020F49D120E0B8F1110F18D0B8F1120FD2
:1008800042D11EE0B9F5881F25D006DCB9F5803FBE
:1008900020D0B9F5801F37D11AE0B9F5001F18D064
:1008A000B9F5041F30D117E0D1F80CC02DE0D1F814
:1008B0000C8008F1040C28E0D1F80C8008F1080C39
:1008C00023E0D1F80C8008F10C0C1EE000BF00BF43
:1008D00000BF00BF00BF00BFD1F80880B8F1000F13
:1008E00002D14FF0040C0BE0D1F80880B8F1010FF1
:1008F00003D14FF0080C146102E04FF0080C546172
:1009000003E04FF0000C00E000BF00BFFF2801D85B
:10091000904601E002F104084646FF2802D84FEA5B
:10092000830803E0A3F108084FEA88084746D6F891
:1009300000804FF00F0909FA07F928EA09080CFAB4
:1009400007F900E07AE048EA0908C6F80080D1F823
:10095000048008F08058B8F1805F6FD100BFDFF8E5
:10096000DC81D8F8188048F00108DFF8D091C9F888
:100970001880C846D8F8188008F00108CDF8008023
:1009800000BF00BF4FEAB9384FEA930958F8295021
:100990004FEA83784FEA18794FF00F0808FA09F800
:1009A00025EA0805DFF89881424502D14FF000089A
:1009B00024E0DFF89081424502D14FF001081DE0AC
:1009C000DFF88481424502D14FF0020816E0DFF8DB
:1009D0007C81424502D14FF003080FE0DFF87081BF
:1009E000424502D14FF0040808E0DFF86881424533
:1009F00002D14FF0050801E04FF006084FEA837975
:100A00004FEA197908FA09F848EA0505DFF848813C
:100A10004FEA930948F82950D1F8048008F4803847
:100A2000B8F5803F0BD1DFF83481D8F8008048EA70
:100A30000008DFF82891C9F800800AE075E0DFF8C7
:100A40001C81D8F8008028EA0008DFF81091C9F866
:100A50000080D1F8048008F40038B8F5003F0ED1CA
:100A6000DFF8F88008F10408D8F8008048EA0008A8
:100A7000DFF8E89009F10409C9F800800DE0DFF81B
:100A8000DC8008F10408D8F8008028EA0008DFF8C4
:100A9000CC9009F10409C9F80080D1F8048008F469
:100AA0008018B8F5801F0ED1DFF8B08008F1080873
:100AB000D8F8008048EA0008DFF8A09009F108099A
:100AC000C9F800800DE0DFF8948008F10808D8F834
:100AD000008028EA0008DFF8849009F10809C9F8C5
:100AE0000080D1F8048008F40018B8F5001F0ED17A
:100AF000DFF8688008F10C08D8F8008048EA0008A0
:100B0000DFF8589009F10C09C9F800800DE0DFF812
:100B10004C8008F10C08D8F8008028EA0008DFF8BB
:100B20003C9009F10C09C9F800805B1C102BFFF404
:100B300081AEBDE8F88700000000111000100240EF
:100B400000080140000C0140001001400014014069
:100B500000180140001C0140080001400004014051
:100B6000024693680B400BB1012000E00020704763
:100B70000AB1016101E00B0403617047014800689C
:100B8000704700000400002010B50848006840F0DD
:100B9000100006490860052000F068F80F2000F0FA
:100BA00007F800F017F8002010BD000000200240F8
:100BB00070B5044600F0BAF94FF47A71B0FBF1F564
:100BC000284600F08FFE00222146501E00F010F84B
:100BD000002070BD704700BF00F01F02012191404E
:100BE0004209920002F1E022C2F8001100BF7047F2
:100BF0002DE9F05F80460D461646002701F022FEE3
:100C0000074639462A46334601F00700C0F1070A75
:100C1000BAF1040F02D94FF0040A01E0C0F1070A4B
:100C2000D14600F1040ABAF1070F02D24FF0000AD0
:100C300001E0A0F1030AD4464FF0010A0AFA09FACA
:100C4000AAF1010A0AEA020A0AFA0CFA4FF0010BA9
:100C50000BFA0CFBABF1010B0BEA030B4AEA0B049A
:100C60002146404601F0F6FDBDE8F09F00BF00F0D0
:100C70000702064B19684FF6FF031940044B0B435C
:100C800043EA0221014B196000BF70470CED00E000
:100C90000000FA0570B504460D4600269F4800681E
:100CA00000F00700A8420ED29C48006820F0070020
:100CB00028439A4908600846006800F00700A842E7
:100CC00001D0012070BD207800F00200022807D179
:100CD0009348406820F0F000A168084390494860BC
:100CE000207800F0010000287CD0606801282DD118
:100CF0002020010391FAA1F1B1FA81F10843012109
:100D0000B1EB601F02D1864800680FE0202001038C
:100D100091FAA1F1B1FA81F108430221B1EB601F10
:100D200002D17F48006A01E07D48406A20210A0321
:100D300092FAA2F2B2FA82F2114301F01F020121EB
:100D400091400840002860D10120BBE7606802287C
:100D50002CD12020010591FAA1F1B1FA81F10843CB
:100D60000121B1EB601F02D16D4800680FE0202027
:100D7000010591FAA1F1B1FA81F108430221B1EB29
:100D8000601F02D16648006A01E06548406A202180
:100D90000A0592FAA2F2B2FA82F2114301F01F029E
:100DA00001219140084078BB01208BE720200221DF
:100DB00091FAA1F1B1FA81F108430121B1EB601F71
:100DC00002D15748006810E02020022191FAA1F1D9
:100DD000B1FA81F108430221B1EB601F03D1504801
:100DE000006A02E054E04E48406A2021022292FA52
:100DF000A2F2B2FA82F2114301F01F0201219140E6
:100E0000084008B901205DE7FFE74548406820F049
:100E100003006168084342494860FFF7AFFE064699
:100E20006068012810D108E0FFF7A8FE801B41F29E
:100E30008831884201D9032044E73948406800F0EE
:100E40000C000428F0D123E06068022810D108E0EB
:100E5000FFF794FE801B41F28831884201D90320BC
:100E600030E72F48406800F00C000828F0D10FE070
:100E700008E0FFF783FE801B41F28831884201D9E8
:100E800003201FE72648406800F00C000028F0D13E
:100E90002248006800F00700A8420ED91F480068E9
:100EA00020F0070028431D4908600846006800F04C
:100EB0000700A84201D0012004E7207800F00400D8
:100EC000042807D11648406820F4E060E168084330
:100ED00013494860207800F00800082808D110481D
:100EE000406820F46050216940EAC1000C49486024
:100EF00000F04EF80A49496801F0F001F02292FA38
:100F0000A2F2B2FA82F2D140064A515CC8400649C8
:100F100008600F20FFF74CFE0020D3E600200240BF
:100F2000001002405A4B00080000002001480068F1
:100F3000704700000000002000B5FFF7F7FF0749E9
:100F4000496801F4E0614FF4E06292FAA2F2B2FA69
:100F500082F2D140024A515CC84000BD00100240FC
:100F60006A4B000800B5FFF7E1FF0749496801F443
:100F700060514FF4605292FAA2F2B2FA82F2D1407A
:100F8000024A515CC84000BD001002406A4B000894
:100F9000F0B585B00FF28C0C9CE8E01001A8A0E839
:100FA000E01024A52D6800950021002400220023D4
:100FB0000020214D696801F00C056DB3042D02D0AD
:100FC000082D28D101E01D4828E001F470154FF4E8
:100FD000701696FAA6F6B6FA86F6F54001AE735D7F
:100FE00001F4803595B1144D6D6805F400354FF46A
:100FF000003696FAA6F6B6FA86F6F5401DF80540D4
:101000000E4DB5FBF4F505FB03F202E00C4D03FBBE
:1010100005F2104602E000BF084800BF00BF05B05F
:10102000F0BD000002030405060708090A0B0C0DB9
:101030000E0F1010010200000010024000127A0092
:1010400000093D0038B504460025207800F0010075
:1010500000287CD0F848406800F00C0004280CD030
:10106000F548406800F00C00082837D1F248406885
:1010700000F48030B0F5803F30D12020010391FA98
:10108000A1F1B1FA81F108430121B1EB601F02D156
:10109000E94800680FE02020010391FAA1F1B1FABC
:1010A00081F108430221B1EB601F02D1E248006ADE
:1010B00001E0E148406A20210A0392FAA2F2B2FA62
:1010C00082F2114301F01F020121914008400028E3
:1010D000BFD0606800283AD1012038BD00BF6068E9
:1010E000B0F5803F06D1D448006840F48030D24942
:1010F000086028E0606858B9CF48006820F4803064
:10110000CD4908600846006820F4802008601AE095
:101110006068B0F5A02F0BD1C748006840F480206C
:10112000C54908600846006840F4803008600AE05D
:10113000C148006820F48030BF4908600846006854
:1011400020F48020086000BF6068C8B300E06FE052
:10115000FFF714FD054606E0FFF710FD401B64286D
:1011600001D90320B9E72020010391FAA1F1B1FAD6
:1011700081F108430121B1EB601F02D1AE48006844
:101180000FE02020010391FAA1F1B1FA81F10843A7
:101190000221B1EB601F02D1A748006A01E0A64816
:1011A000406A20210A0392FAA2F2B2FA82F21143B3
:1011B00001F01F020121914008400028CCD037E007
:1011C000FFE7FFF7DBFC054606E0FFF7D7FC401B17
:1011D000642801D9032080E72020010391FAA1F1BE
:1011E000B1FA81F108430121B1EB601F02D19248AD
:1011F00000680FE02020010391FAA1F1B1FA81F11A
:1012000008430221B1EB601F02D18B48006A01E064
:101210008948406A20210A0392FAA2F2B2FA82F2C5
:10122000114301F01F020121914008400028CCD158
:10123000207800F0020002284ED17F48406800F07C
:101240000C0050B17C48406800F00C00082844D1E4
:101250007948406800F4803078BB2020022191FA60
:10126000A1F1B1FA81F108430121B1EB601F02D174
:10127000714800680FE02020022191FAA1F1B1FA33
:1012800081F108430221B1EB601F02D16A48006A74
:1012900001E06948406A2021022292FAA2F2B2FAE1
:1012A00082F2114301F01F0201219140084028B150
:1012B0002069012802D001200FE70EE05E48006897
:1012C00020F0F800F82292FAA2F2B2FA82F26169F2
:1012D000914008435849086091E02069F0B301202B
:1012E00090FAA0F1B1FA81F1544A42F82100FFF7D7
:1012F00045FC054606E0FFF741FC401B022801D9EA
:101300000320EAE62020022191FAA1F1B1FA81F14D
:1013100008430121B1EB601F02D1474800680FE08C
:101320002020022191FAA1F1B1FA81F108430221B2
:10133000B1EB601F02D14048006A01E03E48406ABC
:101340002021022292FAA2F2B2FA82F2114301F0B3
:101350001F02012191400840002800E00FE0CAD0A0
:101360003548006820F0F800F82292FAA2F2B2FAAA
:1013700082F26169914008432F4908603FE00020F4
:10138000012191FAA1F1B1FA81F12C4A42F8210030
:10139000FFF7F4FB054606E0FFF7F0FB401B0228D1
:1013A00001D9032099E62020022191FAA1F1B1FA96
:1013B00081F108430121B1EB601F02D11E48006892
:1013C0000FE02020022191FAA1F1B1FA81F1084346
:1013D0000221B1EB601F02D11748006A01E01648F4
:1013E000406A2021022292FAA2F2B2FA82F211435A
:1013F00001F01F020121914008400028CCD1207843
:1014000000F0080008284BD1A069A8B3012191FA87
:10141000A1F0B0FA80F0094A02EB8000C0F8801415
:10142000FFF7ACFB05460BE0FFF7A8FB401B0228CB
:1014300006D9032051E6000000100240000042429D
:101440006020022191FAA1F1B1FA81F10843012152
:10145000B1EB601F02D1F948006810E06020022162
:1014600091FAA1F1B1FA81F108430221B1EB601FB9
:1014700003D1F248006A02E013E0F048406A6021BC
:10148000022292FAA2F2B2FA82F2114301F01F0292
:101490000121914008400028C6D00120FFF7B3F990
:1014A00041E00020012191FAA1F1B1FA81F1E44A71
:1014B00002EB8101C1F88004FFF760FB054606E0FE
:1014C000FFF75CFB401B022801D9032005E66020E2
:1014D000022191FAA1F1B1FA81F108430121B1EBA6
:1014E000601F02D1D54800680FE06020022191FA08
:1014F000A1F1B1FA81F108430221B1EB601F02D1E1
:10150000CE48006A01E0CD48406A6021022292FA8A
:10151000A2F2B2FA82F2114301F01F0201219140BE
:1015200008400028CCD1207800F00400042875D1B0
:1015300000BFC248C06940F08050C049C861084639
:10154000C06900F08050009000BF00BFBD48006837
:1015500040F48070BB490860FFF710FB054606E0C9
:10156000FFF70CFB401B642801D90320B5E5B54803
:10157000006800F480700028F2D000BFE068012805
:1015800006D1AE48006A40F00100AC49086227E08D
:10159000E06858B9A948006A20F00100A74908622C
:1015A0000846006A20F00400086219E0E068052897
:1015B0000BD1A248006A40F00400A0490862084626
:1015C000006A40F0010008620AE09C48006A20F0CE
:1015D00001009A4908620846006A20F00400086287
:1015E00000BFE068D0B3FFF7C9FA054608E0FFF78F
:1015F000C5FA401B41F28831884201D903206CE5CD
:101600004020022191FAA1F1B1FA81F108430121B0
:10161000B1EB601F03D18948006810E058E040201A
:10162000022191FAA1F1B1FA81F108430221B1EB53
:10163000601F02D18148006A01E08048406A402171
:10164000022292FAA2F2B2FA82F2114301F01F02D0
:101650000121914008400028C9D039E0FFE7FFF799
:101660008DFA054608E0FFF789FA401B41F2883100
:10167000884201D9032030E54020022191FAA1F1EE
:10168000B1FA81F108430121B1EB601F02D16B482F
:1016900000680FE04020022191FAA1F1B1FA81F136
:1016A00008430221B1EB601F02D16448006A01E0E7
:1016B0006248406A4021022292FAA2F2B2FA82F211
:1016C000114301F01F020121914008400028CAD1B6
:1016D000E069002873D05948406800F00C000828E1
:1016E0006ED0E06902286CD100204FF0807191FA31
:1016F000A1F1B1FA81F1524A42F82100FFF73EFA16
:10170000054606E0FFF73AFA401B022801D90320FC
:10171000E3E42020010591FAA1F1B1FA81F1084337
:101720000121B1EB601F02D1444800680FE0202086
:10173000010591FAA1F1B1FA81F108430221B1EB5F
:10174000601F02D13D48006A01E03C48406A202108
:101750000A0592FAA2F2B2FA82F2114301F01F02D4
:101760000121914008400028CCD1206AB0F5803F8B
:1017700007D13248406820F40030A16808432F495F
:101780004860D4E9080108432C49496821F47411E0
:1017900008432A4948600121080690FAA0F0B0FAEF
:1017A00080F0274A42F82010FFF7E8F9054609E0E3
:1017B000FFF7E4F9401B022804D903208DE479E007
:1017C00076E02CE02020010591FAA1F1B1FA81F137
:1017D00008430121B1EB601F02D1184800680FE0F7
:1017E0002020010591FAA1F1B1FA81F1084302210B
:1017F000B1EB601F02D11148006A01E00F48406A56
:1018000020210A0592FAA2F2B2FA82F2114301F003
:101810001F020121914008400028C9D04AE0002061
:101820004FF0807191FAA1F1B1FA81F1044A42F8C6
:101830002100FFF7A3F905460DE00000001002406B
:101840000000424200700040FFF798F9401B022858
:1018500001D9032041E42020010591FAA1F1B1FA58
:1018600081F108430121B1EB601F02D112480068E9
:101870000FE02020010591FAA1F1B1FA81F10843AE
:101880000221B1EB601F02D10B48006A01E00A4857
:10189000406A20210A0592FAA2F2B2FA82F21143BA
:1018A00001F01F020121914008400028CCD101E045
:1018B000012012E4002010E400100240042808D1A6
:1018C0004FF0E021096941F004014FF0E02211617D
:1018D00007E04FF0E021096921F004014FF0E02218
:1018E0001161704770B504462546681EB0F1807FCF
:1018F00001D301200FE0681E4FF0E02148610F2165
:101900004FF0FF3000F0A6FF00204FF0E02188618B
:1019100007200861002070BD70477047024600BF75
:1019200092F83800012801D102207047012082F886
:10193000380000BF022082F839001068406820F0AB
:10194000700013685860106840680B68184313688B
:1019500058601068806820F08000136898601068F4
:1019600080684B68184313689860012082F839003A
:1019700000BF002082F8380000BF00BFD5E710B5D7
:1019800004460CB9012010BD94F8390028B9002094
:1019900084F83800204600F00DF8022084F8390061
:1019A000211D206801F00CFF012084F8390000207F
:1019B000E9E7000038B504460D492068884215D192
:1019C00000BF0C48C06940F010000A49C8610846D1
:1019D000C06900F01000009000BF00BF0022114657
:1019E0003620FFF705F93620FFF7F5F838BD00007F
:1019F000001000400010024001460868C06840F036
:101A000001000A68D0600868006840F001000A68B8
:101A10001060002070472DE9F04104460D464FF05C
:101A200000080026002714B90120BDE8F08194F8D1
:101A3000390028B9002084F83800204600F046F824
:101A4000022084F839002068806820F007002168AF
:101A50008860211D206801F0B3FE2068D0F808805E
:101A6000206886692068076A286840EA080840F20A
:101A700003308643A969A86840EA0120064340F67E
:101A80000C4086434FF2F0008643E969E86840EA7B
:101A90000120064328690001296A40EA0130064313
:101AA00027F0220727F088076969686840EA011073
:101AB00007432068C0F808802068866120680762B4
:101AC000012084F839000020AFE7000010B586B08F
:101AD0000446002002900390049005902C49206851
:101AE00088422BD100BF2B48806940F4006029490F
:101AF00088610846806900F40060019000BF00BF63
:101B000000BF0846806940F040008861084680694F
:101B100000F04000019000BF00BF4FF42060029031
:101B200000200390049002A91B48FEF779FE1B4891
:101B3000406840F0C0001949486027E01849206813
:101B4000884223D100BF1348806940F400501149F6
:101B500088610846806900F40050019000BF00BF12
:101B600000BF0846806940F010008861084680691F
:101B700000F01000019000BF00BFC02002900020C4
:101B80000390049002A90748FEF74AFE06B010BD74
:101B9000002C0140001002400018014000000140EC
:101BA000003401400010014030B504460D4615B127
:101BB000042D0CD105E001220021206801F048FE2F
:101BC00010E001220421206801F042FE0AE0012217
:101BD0000021206801F03CFE01220421206801F070
:101BE00037FE00BF00BF2068006840F00100216898
:101BF0000860002030BD704710B5044620680069B9
:101C0000C0F34000D8B12068C068C0F34000B0B154
:101C10006FF0020021680861012020762068806949
:101C200000F0030018B12046FFF7E5FF05E020466D
:101C300000F054F9204600F02FFA002020762068AA
:101C40000069C0F38000D8B12068C068C0F380008C
:101C5000B0B16FF00400216808610220207620688E
:101C6000806900F4407018B12046FFF7C4FF05E01A
:101C7000204600F033F9204600F00EFA00202076CE
:101C800020680069C0F3C000D8B12068C068C0F304
:101C9000C000B0B16FF00800216808610420207610
:101CA0002068C06900F0030018B12046FFF7A3FFC9
:101CB00005E0204600F012F9204600F0EDF9002082
:101CC000207620680069C0F30010D8B12068C06891
:101CD000C0F30010B0B16FF0100021680861082057
:101CE00020762068C06900F4407018B12046FFF7E4
:101CF00082FF05E0204600F0F1F8204600F0CCF924
:101D0000002020762068006900F0010058B12068AA
:101D1000C06800F0010030B16FF001002168086177
:101D2000204600F0E1F920680069C0F3C01058B106
:101D30002068C068C0F3C01030B16FF08000216827
:101D400008612046FFF7E8FD20680069C0F38010B5
:101D500058B12068C068C0F3801030B16FF0400007
:101D600021680861204600F0FDF920680069C0F391
:101D7000401058B12068C068C0F3401030B16FF017
:101D80002000216808612046FFF7C7FD10BD000054
:101D900010B586B004460020029003900490059090
:101DA0002068B0F1804F35D100BF4548806940F0D0
:101DB0000400434988610846806900F004000190EE
:101DC00000BF00BF00BF0846806940F0080088617E
:101DD0000846806900F00800019000BF00BF0220A3
:101DE00002900390059002A93648FEF719FD4FF4C2
:101DF0008060029002200390059002A93248FEF70D
:101E00000FFD3248406820F4407040F400702F49C4
:101E1000486053E02E49206888422DD100BF2848F1
:101E2000806940F00400264988610846806900F016
:101E30000400019000BF00BF00BF0846806940F069
:101E4000080088610846806900F00800019000BF22
:101E500000BFC020029002200390059002A91948FB
:101E6000FEF7DEFC0320029002200390059002A9F9
:101E70001548FEF7D5FC21E01649206888421DD19F
:101E800000BF0F48806940F020000D498861084676
:101E9000806900F02000019000BF00BF4FF4704047
:101EA000029002200390059002A90B48FEF7B8FCAF
:101EB0000648406840F480500449486006B010BDB0
:101EC0000010024000080140000C014000000140E9
:101ED000000400400008004000140140704770B545
:101EE00004460D46164600BF94F83800012801D17B
:101EF000022070BD012084F8380000BF022084F861
:101F0000390036B1042E1BD0082E31D00C2E5ED1F4
:101F100045E02946206801F0A9FC2068806940F06E
:101F20000800216888612068806920F00400216829
:101F3000886120688069296908432168886147E0D1
:101F40002946206801F0CEFC2068806940F40060DA
:101F5000216888612068806920F480602168886138
:101F600020688069296940EA0120216888612FE0A2
:101F70002946206801F0F6FC2068C06940F008009E
:101F80002168C8612068C06920F004002168C86128
:101F90002068C069296908432168C86118E029469A
:101FA000206801F01FFD2068C06940F400602168CE
:101FB000C8612068C06920F480602168C861206819
:101FC000C069296940EA01202168C86100E000BFBA
:101FD00000BF012084F8390000BF002084F83800D9
:101FE00000BF00BF85E710B504460CB9012010BD45
:101FF00094F8390028B9002084F83800204600F011
:102000000DF8022084F83900211D206801F0D8FB6A
:10201000012084F839000020E9E7000008B50168D4
:10202000B1F1804F0DD100BF1849C96941F00101DC
:10203000164AD1611146C96901F00101009100BF42
:1020400023E0134A016891420DD100BF0F49C969CD
:1020500041F002010D4AD1611146C96901F0020146
:10206000009100BF11E00B4A016891420DD100BF01
:102070000649C96941F00401044AD1611146C969A0
:1020800001F00401009100BF00BF08BD0010024034
:1020900000040040000800407047000030B50446CE
:1020A0000D4601222946206801F0D2FB0C49206828
:1020B000884203D00B492068884201D1012000E00A
:1020C000002028B12068406C40F40040216848643A
:1020D0002068006840F0010021680860002030BDE1
:1020E000002C0140003401401FB50446134920680C
:1020F000884221D112481349134A0223CDE9003204
:10210000CDE90210114B0122194611480078FEF763
:1021100028FB0F4908700F480F49104A0823CDE9E2
:102120000032CDE90210094B042219460C48007810
:10213000FEF717FB0A4908701FBD000000100040A1
:102140008400002082000020680000200018014068
:102150008000002085000020830000206C0000200B
:102160008100002070477047014691F839007047A0
:10217000F8B50446002500262068006800F0010537
:102180002068C06800F4807625B11EB1E06B40F095
:102190000100E06320680068C0F3400520684069E2
:1021A00000F0010625B11EB1E06B40F00400E063D1
:1021B00020680068C0F3800525B11EB1E06B40F0D7
:1021C0000200E06320680068C0F3C00525B11EB1BD
:1021D000E06B40F00800E06320680068C0F3401541
:1021E0002068C06800F020061DB116B1204601F03D
:1021F0003DFC20680068C0F3C0152068C06800F08E
:1022000080061DB116B1204601F072FD20680068FD
:10221000C0F380152068C06800F040061DB116B1FB
:10222000204601F00BFCE06B70B100BF2068006835
:10223000009020684068009000BF00BF012084F833
:1022400039002046FFF78FFFF8BD10B504460CB9E2
:10225000012010BDA06900B100E000BF94F8390072
:1022600028B9002084F83800204600F025F8022024
:1022700084F839002068C06820F400502168C860E4
:10228000204601F051FC2068006920F4904021684C
:1022900008612068406920F02A00216848612068B0
:1022A000C06840F400502168C8600020E06301204D
:1022B00084F839000020CCE710B586B004462549E3
:1022C0002068884244D100BF2348806940F0040060
:1022D000214988610846806900F00400019000BF30
:1022E00000BF00BF0846806940F48040886108460E
:1022F000806900F48040019000BF00BF00BF084625
:10230000806940F0010088610846806900F00100A2
:10231000019000BF00BF48150290022003900120E9
:1023200004900320059002A90C48FEF779FA4FF4B7
:10233000806002900020039002A90848FEF770FA1E
:102340002520FEF748FC032211462520FEF750FC0D
:1023500006B010BD003801400010024000080140E6
:1023600030B50346002493F83940012C01D0122CDB
:1023700037D101B10AB9012030BD00BF93F8380050
:10238000012801D10220F7E7012083F8380000BFBF
:1023900099629A85DA850020D86393F8390012286B
:1023A00003D1322083F8390002E0222083F839007B
:1023B00000BF002083F8380000BF1868C06840F4F0
:1023C00080701D68E8601868406940F001001D6871
:1023D00068611868C06840F020001D68E86000204F
:1023E000CAE70220C8E700001D4A0168914236D1C1
:1023F0001C49098801F4004189BB1A49098801F484
:10240000804171B1184909780A2903D00021154A81
:10241000118024E01349098841F40041114A1180D8
:102420001DE0114909780D2906D10E49098841F4AA
:1024300080410C4A118012E00B490978094A128840
:10244000C2F30D02094B995406490988491C054AF3
:10245000118011460988C72901DD002111807047CC
:10246000003801401400002016000020880C0020D5
:10247000704700BFFEE7000000B585B000BF1B48F5
:10248000806940F00800194988610846806900F0B9
:102490000800009000BF00BF00BF0846806940F000
:1024A000400088610846806900F04000009000BF4D
:1024B00000BF20200190012002900390032004908F
:1024C00001A90B48FEF7ACF92020019001A90948A9
:1024D000FEF7A6F9012220210548FEF749FB01225B
:1024E00020210448FEF744FB05B000BD0010024067
:1024F000000C01400018014000B585B0002001909B
:1025000002900390049000BF2548806940F040008D
:10251000234988610846806900F04000009000BFB0
:1025200000BF00BF0846806940F00400886108468B
:10253000806900F00400009000BF00BF00BF0846A3
:10254000806940F0080088610846806900F0080052
:10255000009000BF00BF00BF0846806940F0200027
:1025600088610846806900F02000009000BF00BF2D
:1025700000BF0846806940F0100088610846806905
:1025800000F01000009000BF00BF0F20019000205D
:102590000290039001A90348FEF742F905B000BD7F
:1025A000001002400018014000B58BB0242102A8A1
:1025B000FDF760FF00200090019015481549086064
:1025C000002048600021134881604FF6FF71C16010
:1025D000002101614161012002900220039001204D
:1025E000049000200590069007900120089000209C
:1025F00009900A9002A90748FFF70DFA0020009001
:10260000019069460348FFF789F90BB000BD00004F
:10261000002C0140900D002000B589B000200790EB
:1026200008901C216846FDF725FF4FF080401449B3
:102630000860472048600021114881606321C16023
:1026400000210161FFF7CFFC00200790089007A947
:102650000B48FFF763F96020009000200190029082
:102660000490042269460648FFF739FC08226946AF
:102670000348FFF734FC0248FFF78AFB09B000BDAE
:10268000CC0D002000B589B00020079008901C21D7
:102690006846FDF7EFFE1A481A490860472048606F
:1026A0000021184881606321C16000210161FFF7AA
:1026B0009AFC00200790089007A91248FFF72EF90E
:1026C0006020009000200190029004900022694652
:1026D0000C48FFF704FC042269460A48FFF7FFFB99
:1026E000082269460748FFF7FAFB0C2269460548AD
:1026F000FFF7F5FB0348FFF74BFB09B000BD0000F7
:1027000000040040080E002000B589B000200790AA
:1027100008901C216846FDF7ADFE1A481A4908606A
:10272000472048600021184881606321C160002172
:102730000161FFF758FC00200790089007A9124894
:10274000FFF7ECF8602000900020019002900490C8
:10275000002269460C48FFF7C2FB042269460A487A
:10276000FFF7BDFB082269460748FFF7B8FB0C22BC
:1027700069460548FFF7B3FB0348FFF709FB09B0BB
:1027800000BD000000080040440E00201CB50020E1
:10279000009001900B480C490860472048600021D8
:1027A000094881606421C160FFF7E9F800200090CA
:1027B000019069460448FFF7B1F80348FFF71CF998
:1027C0001CBD000000100040800E002000B58BB042
:1027D000242102A8FDF74EFE00200090019015482C
:1027E00015490860002048600021134881604FF6B9
:1027F000FF71C1600021016141610120029002204E
:10280000039001200490002005900690079001207D
:102810000890002009900A9002A90748FFF7FBF8EA
:1028200000200090019069460348FFF777F80BB04D
:1028300000BD000000340140BC0E002000BFFEE7D8
:102840007047000002480068C0F302207047000093
:102850000CED00E010B5002807DA0A07140E054A4F
:1028600000F00F031B1FD45403E00A07130E024AA3
:10287000135410BD18ED00E000E400E010B500F0C6
:1028800013F800F07BFC00F0A7FC00F0C7FC00F0A0
:1028900045FC00F005FC00F05BFD00F0FFFC00F0E3
:1028A00025FD00F019F810BD0848802102E0491EFE
:1028B000002204C00029FAD1054A064B1A601A46C4
:1028C000126822F007021A6070470000181E0020EC
:1028D000182000206400002070470000064800789F
:1028E000012808D105480078FF2804D20348007861
:1028F000401C0249087070473E0000203100002053
:1029000010B500241A480078012830D1FDF782FC68
:1029100004461848007820B116480078401E154932
:10292000087014480078F8B913480078E0B900F04E
:1029300071FD12481249097850F8210011490860C8
:102940000F4800781049097888420DD00D4800687A
:10295000C06B401C0B490968C8630C480068401CE8
:102960000A490860FDF776FC2046FDF757FC10BDCC
:102970003E000020310000203200002028150020F9
:10298000340000204C0000203300002018000020FC
:1029900010B50B48007890B900F03CFD094800786C
:1029A0000949087009480749097850F82100084981
:1029B00008600846006807490860FDF732FC10BD52
:1029C0003E000020340000203300002028150020A5
:1029D0004C0000204400002010B50024022000F02C
:1029E00073FAFDF717FC044600200B4908602046E7
:1029F000FDF714FC642000F067FAFDF70BFC0446B9
:102A0000054800680549086001200549087020460E
:102A1000FDF704FC10BD000040000020280000204D
:102A20003000002010B504462046FDF707FE10BD1B
:102A30002DE9F04F85B081468A4693461C46DDE974
:102A40000F78129D00200390FDF7E4FB03902348CC
:102A5000007830B10398FDF7E1FB3C2005B0BDE8FC
:102A6000F08F1F4850F8240088BB01201C4941F812
:102A700024000398FDF7D2FB2A464146384600F071
:102A80000DFE2B465A465146484600F073F9049015
:102A90001198CDE9008002953A4620460E9B049994
:102AA00000F0CEFC064636B90E48007801280CD15D
:102AB00000F076FC09E0FDF7ADFB0390002008492B
:102AC00041F824000398FDF7A9FB3046C6E7FFE76D
:102AD0000398FDF7A3FB2820C0E700003100002089
:102AE000281500203E00002010B504462046FDF7C2
:102AF000A6FD10BD2DE9F041054600274A480078A3
:102B000010B14020BDE8F0813F2D01D13E20F9E712
:102B1000FDF780FB0746FF2D03D14448006890F87D
:102B20003650434850F8254024B93846FDF776FB27
:102B30004320E7E7012C04D13846FDF76FFB3D2029
:102B4000E0E714F8380F3B49085C61788843217846
:102B5000384A505414F838091146085C30B994F8D2
:102B60003A1035480078884333490870E06918B155
:102B70002046E16900F05FFA206A18B12046216A18
:102B800000F070FAA66A16B1304600F0B5FA0020DF
:102B9000206384F8340084F8350028480078FF2842
:102BA00004D226480078401C244908703846FDF7B6
:102BB00035FB00F03FFAFDF72DFB07461F48007874
:102BC00020B11E480078401E1C490870204600F0C5
:102BD00041F81B480078401E19490870002014492C
:102BE00041F82500A06930B9002061698861154964
:102BF0006069086005E0D4E905014861D4E9051081
:102C000088611148006860610F4804600FA020656A
:102C10003846FDF703FB0E480078012801D100F08B
:102C2000BFFB00206EE700003100002044000020C0
:102C3000281500203600002035000020320000203A
:102C40003F00002050000020480000203F0000000E
:102C50003E00002010B504462046FDF7F1FC10BDF3
:102C600010B5FDF7EEFC10BD2DE9F04106460F460C
:102C700014464FF000081548007818B11220207053
:102C8000BDE8F081FDF7C6FA8046FF2E03D110485B
:102C9000006890F836600F4850F826502DB940462D
:102CA000FDF7BCFA43202070EAE7012D05D140462C
:102CB000FDF7B4FA43202070E2E72F654046FDF7A8
:102CC000ADFA0020207000BFDAE7000031000020DC
:102CD000440000202815002010B504462046FDF7CA
:102CE000B1FC10BD10B5FDF7AEFC10BD2DE9F047ED
:102CF00007460D464FF0000A002028606860FDF787
:102D000089FA8246FF2F03D11848006890F8367080
:102D1000174850F827402CB95046FDF77FFA43205A
:102D2000BDE8F087012C04D15046FDF777FA432027
:102D3000F6E7207C00F0010020B95046FDF76EFA5E
:102D40004520EDE70026D4F80C90D4F808805046D2
:102D5000FDF764FA00E0761C58F8041B0029FAD04D
:102D60002E60A9EB060068600020D9E7440000202F
:102D70002815002070B50446101D20F007004FF004
:102D80008076051F28462E60051F28462C60214EA0
:102D9000051F28462E604FF01236051F28462E606C
:102DA0004FF00336051F28462E604FF00236051FF0
:102DB00028462E607610051F28462E60051F2846DF
:102DC00029604FF01136051F28462E604FF010364F
:102DD000051F28462E604FF00936051F28462E6035
:102DE0004FF00836051F28462E604FF00736051FA6
:102DF00028462E604FF00636051F28462E604FF0FD
:102E00000536051F28462E604FF00436051F28465C
:102E10002E6070BDA93500082DE9F04105464FF040
:102E20000008FDF7F7F98046FF2D05D1204800681E
:102E300090F83650012608E01D48006890F83600EA
:102E4000A84201D1012600E000261A4850F825408A
:102E50002CB94046FDF7E2F94820BDE8F081012C8D
:102E600004D14046FDF7DAF94320F6E794F83870CC
:102E70001148C05D94F8391088430F49C855084679
:102E8000C05D30B994F83A100C48007888430B497B
:102E9000087094F8340040F0080084F8340040468C
:102EA000FDF7BCF9012E01D100F07AFA0020D4E739
:102EB00044000020281500203600002035000020A6
:102EC00010B5FDF7C1FB10BD70B5054600261748CB
:102ED000007800B170BD1648007800B1FAE71DB364
:102EE000FDF798F906461348006890F838401248F4
:102EF000005D1049096891F8391088430E4908555A
:102F00000846005D40B90B48006890F83A100B483D
:102F10000078884309490870064800680563304610
:102F2000FDF77CF900F03CFA00BFD3E73100002048
:102F30003200002044000020360000203500002030
:102F400070B5002600F072F8FDF764F906463148C6
:102F50000068401C2F4908603046FDF75FF92E4895
:102F60000078012853D12D48007820B1012804D0E1
:102F7000022809D103E001250BE0002509E0012525
:102F800001202649087004E001250020234908702B
:102F900000BF00BF05B970BD2148046833E0FDF7EC
:102FA00039F90646206B50B3206B401E2063206B1E
:102FB00028BB94F8340000F0370040B114F8340F07
:102FC00000F0C800207001206070343C02E0002056
:102FD00084F8350094F8340000F0080078B93834EB
:102FE000A0781049097808430E49087020780E49E6
:102FF000085C6178084314F838190B4A5054646926
:103000003046FDF70BF994F836003F28C7D100BFD2
:10301000C1E70000600000203E00002054000020B6
:1030200050000020350000203600002010B5FDF7CC
:103030000CFB10BD704710B590F8382001F10B0360
:103040009B5C90F83940A34301F10B04A354234641
:103050009B5C23B98B7A90F83A40A3438B72002390
:10306000C36110BDF0B5024612F8384F9578567816
:10307000383A0B4618680FE000F10B073F5DB74385
:1030800000F10B0C0CF8047067463F5D17B9877AA6
:10309000AF4387721B1D18680028EDD1F0BD0000FA
:1030A0002DE9F0415021114800F048F900250DE0CC
:1030B000681C86B20D4800EB051400EB06170020D3
:1030C000207067600AA0E060681C85B2042DEFD311
:1030D000064800EB051400202070606004A0E0604A
:1030E000024804490860BDE8F0810000D8100020C3
:1030F0003F0000002000002030B501464A68086803
:103100002AB9CC68606028B10025456002E01060F3
:1031100000B142608B6800259D6230BD70B54FF4F0
:10312000F071134800F00AF9002411E0601C85B228
:1031300004EB44000E4901EBC00305EB450001EB35
:10314000C006002018705E600AA05861601C84B23E
:10315000132CEBD304EB4400054901EBC003002022
:103160001870586003A0586108460349086070BD94
:10317000F80E00203F0000001C00002000200B493A
:1031800008600B4908700B4908700B4908700B491F
:1031900008700B4908600B4908600B4908600B492F
:1031A00008600B4908700B490870704760000020E8
:1031B00031000020320000203F0000203E000020AF
:1031C00018000020400000202C00002028000020D3
:1031D000300000205C00002000210A4A117000200D
:1031E00004E00021084A1154411CC8B20828F8D351
:1031F0000021064A1170064A1170064A1160064AFB
:103200001160704735000020360000203300002098
:10321000340000204C0000204400002070B54FF422
:10322000F261194800F08AF84FF48071174800F0F5
:1032300085F8002413E0601CC5B204EB440000EBE9
:10324000C400114901EBC00305EB450000EBC500CC
:1032500001EBC0065E610EA01865601CC4B2152C9F
:10326000E9D304EB440000EBC400074901EBC003C1
:103270000020586106A01865002006490860024831
:103280000549086070BD00002816002028150020A0
:103290003F000000500000204800002000B587B02B
:1032A0000320002180220A4BCDE90132CDE9031031
:1032B0004FF6FF703F23074A00900748FFF7B8FB1F
:1032C00006AA06A13F20FFF7CFFC07B000BD000013
:1032D00028130020241500208135000875432F4F46
:1032E000532D49492049646C6500000000B587B042
:1032F0000320002180220A4BCDE90132CDE90310E1
:103300004FF6FE703E23074A00900748FFF790FBF8
:1033100006AA06A13E20FFF7A7FC07B000BD0000EB
:103320002811002024130020C135000875432F4FB9
:10333000532D4949205374617400000004E00022B9
:1033400000F8012B4A1E91B20029F8D17047000005
:103350002DE9F04160211048FFF7F0FF00240DE057
:10336000601C86B204EB44000B4901EBC00506EB80
:10337000460001EBC0072F60601C84B2032CEFD322
:1033800004EB4400044901EBC00500202860084616
:1033900002490860BDE8F081B81D002058000020F7
:1033A00010B50024FCF736FF044613480078F8B93E
:1033B00012480078E0B900F02DF811481149097859
:1033C00050F82100104908600E4800780F4909782C
:1033D00088420DD00C480068C06B401C0A4909683F
:1033E000C8630B480068401C09490860FCF72DFFC2
:1033F0002046FCF713FF10BD3100002032000020F2
:1034000028150020340000204C000020330000204C
:10341000180000200649074A1278885C0649095CB2
:10342000034A515C01EBC001044A1170704700006F
:10343000724B0008350000203600002034000020C8
:103440002DE9F84F05460F4690469946DDE90AAB4F
:1034500000200090FCF7DEFE009042480468002C3B
:103460007BD01C3454F8080C3E4908600098FCF7E7
:10347000D5FE44F81C7CA57600202076607660613D
:1034800044F818BC44F810AC44F8148C0C9824F898
:103490000C0C24F80A9C0020E077E810207705F057
:1034A0000700E076217F01208840A077E17E01209F
:1034B00088406077002020606060E060A06020624B
:1034C000A0626062E062206327A060631C3C00266B
:1034D00006E0002104F1540040F82610701CC6B22A
:1034E000002EF6D02046FFF79DFAFCF793FE0090E1
:1034F0001E4840F825400098FCF790FE2046FFF754
:10350000F3FAFCF787FE009019480068606100201C
:10351000A0611748006810B115480068846114481C
:1035200004603834A07813490978084311490870B9
:1035300020781149085C6178084314F838190E4A5C
:1035400050540E480078401C0C4908700098FCF755
:1035500065FE0020BDE8F88FFFE70098FCF75EFEEF
:103560004220F7E7480000203F0000002815002017
:103570005000002035000020360000203F000020D1
:10358000002400BF00BFFCF745FE04460548006864
:10359000401C044908602046FCF740FEFFF760FB32
:1035A000F1E700004000002010B504480068FFF774
:1035B00093FBFF20FFF79EFA10BD0000440000209F
:1035C00000BF00BF02E0C820FFF77EFC1F48007864
:1035D0000028F8D01E4800686421B0FBF1F01C49B7
:1035E00008600846006828B900201A490870FF20C2
:1035F000FFF712FCFCF70EFE044615480068642134
:103600004843154908602046FCF708FE00BFFCF758
:1036100001FE0446104800681049086000200E4969
:1036200008602046FCF7FAFD0C4800680849096864
:10363000B0FBF1F0C0F1640006490870FFF752FBDF
:1036400000F00EF86420FFF73FFCE0E730000020B8
:103650002800002024000020400000202C00002032
:103660007CB5002514E069462846FFF73FFB064677
:1036700066B9094850F8254044B1012C06D0D4E978
:10368000020100EB8100A0640198E064681CC5B2EF
:103690003F2DE8D97CBD00002815002002F0010371
:1036A00043B102F002032BB102E0491E002308C01F
:1036B0000029FAD17047704710B500F08DFC012049
:1036C000054908750548486005494860002000F034
:1036D00093FD002010BD00004820002078ECFFFF83
:1036E0006020002030B58FB00546002401200590F1
:1036F000000406900020079002200C90C1030D9159
:103700000E9505A8FDF79EFC04460CB100BFFEE730
:103710000F20009002200190002002904FF4806062
:1037200003900020049002216846FDF7B3FA044696
:103730000CB100BFFEE70FB030BD000010B505486A
:103740000078012805D1FFF7C9F8FFF7F9FBFFF76B
:10375000D7F810BD3E0000201148006840F001007D
:103760000F490860084640680E4908400C49486007
:10377000084600680C490840094908600846006886
:1037800020F4802008600846406820F4FE0048606D
:103790004FF41F008860C8030449086070470000A8
:1037A000001002400000FFF8FFFFF6FE08ED00E009
:1037B00010B50248FEF720FA10BD0000800E002070
:1037C000002202681D4B98420ED01D4B98420BD030
:1037D000B0F1804F08D01B4B984205D01A4B98424D
:1037E00002D01A4B984203D122F070024B681A4360
:1037F000124B98420ED0124B98420BD0B0F1804F32
:1038000008D0104B984205D00F4B984202D00F4B76
:10381000984203D122F44072CB681A4302608B684D
:10382000C3620B688362054B984202D0044B9842F6
:1038300001D10B690363012343617047002C0140F0
:10384000003401400004004000080040000C00402B
:1038500030B50023012404FA01F3046A9C43046296
:10386000046A02FA01F52C43046230BD30B500242D
:1038700000220023056A25F001050562026A4368FB
:10388000846924F0700424F003040D682C4322F0B2
:1038900002028D682A43114DA84200D103E0104D69
:1038A000A84206D100BF22F00802CD682A4322F0C8
:1038B00004020A4DA84202D0094DA84207D123F4C0
:1038C000807323F400734D692B438D692B43436050
:1038D00084614D684563026230BD0000002C0140E8
:1038E0000034014030B5002400220023056A25F091
:1038F00010050562026A4368846924F4E04424F4F4
:1039000040740D6844EA052422F020028D6842EAE2
:103910000512124DA84200D103E0114DA84207D173
:1039200000BF22F08002CD6842EA051222F0400278
:103930000A4DA84202D00A4DA84209D123F480635F
:1039400023F400634D6943EA85038D6943EA8503E7
:10395000436084614D688563026230BD002C014084
:103960000034014030B5002400220023056A25F40C
:1039700080750562026A4368C46924F0700424F00B
:1039800003040D682C4322F400728D6842EA05227C
:10399000124DA84200D103E0114DA84207D100BF4B
:1039A00022F40062CD6842EA052222F480620B4DC7
:1039B000A84202D00A4DA84209D123F4805323F42F
:1039C00000534D6943EA05138D6943EA05134360CB
:1039D000C4614D68C563026230BD0000002C014027
:1039E0000034014030B5002200230024056A25F48C
:1039F00080550562036A4468C26922F4E04222F4F9
:103A000040720D6842EA052223F400538D6843EAB0
:103A10000533084DA84202D0074DA84204D124F432
:103A200080444D6944EA85144460C2614D68056470
:103A3000036230BD002C01400034014010B5044643
:103A40002068C06820F040002168C86094F8390000
:103A5000322803D1222084F8390002E0012084F8C2
:103A600039002046FEF704FD002010BD70B5044665
:103A7000002694F83960222E01D0322E52D1A0684F
:103A8000B0F5805F13D1A56A206940B9206840680D
:103A9000C0F308002880A06A801CA06219E020689A
:103AA0004068C0B22880A06A401CA06211E0206972
:103AB00038B920684068C1B2A26A501CA062117077
:103AC00007E02068406800F07F01A26A501CA062F5
:103AD0001170E08D401E80B2E08508BB2068C06890
:103AE00020F020002168C86094F83900322803D102
:103AF000122084F839000EE02068C06820F480703D
:103B00002168C8602068406920F001002168486190
:103B1000012084F839002046FEF766FC002070BDC5
:103B20000020FCE70220FAE72DE9F04104460025D9
:103B30002068006920F44050E1680843216808616A
:103B40002169A0680843616940EA01052068C068EE
:103B500041F20C61884328432168C86020684069AD
:103B600020F44070A1690843216848615F492068DA
:103B700088425CD1FDF7F6F900EBC00101EB0010C3
:103B800061688900B0FBF1F6FDF7ECF900EBC001CC
:103B900001EB001061688900B0FBF1F06421B0FB1B
:103BA000F1F000EBC00101EB0010A6EB8000322128
:103BB00001EB00106421B0FBF1F000F0F006FDF71E
:103BC000D1F900EBC00101EB001061688900B0FB86
:103BD000F1F06421B0FBF1F006EB0016FDF7C2F93D
:103BE00000EBC00101EB001061688900B0FBF1F748
:103BF000FDF7B8F900EBC00101EB00106168890026
:103C0000B0FBF1F06421B0FBF1F000EBC00101EB7F
:103C10000010A7EB8000322101EB00106421B0FB03
:103C2000F1F000F00F003044216888605BE0FDF7A0
:103C300083F900EBC00101EB001061688900B0FB63
:103C4000F1F6FDF779F900EBC00101EB00106168B6
:103C50008900B0FBF1F06421B0FBF1F000EBC00192
:103C600001EB0010A6EB8000322101EB0010642173
:103C7000B0FBF1F000F0F006FDF75EF900EBC001DB
:103C800001EB001061688900B0FBF1F06421B0FB2A
:103C9000F1F006EB0016FDF74FF900EBC00101EB68
:103CA000001061688900B0FBF1F7FDF745F900EB02
:103CB000C00101EB001061688900B0FBF1F06421E4
:103CC000B0FBF1F000EBC00101EB0010A7EB8000AE
:103CD000322101EB00106421B0FBF1F000F00F0085
:103CE000304421688860BDE8F08100000038014060
:103CF00010B50146002391F83930122B01D0322B38
:103D00002CD18868B0F5805F0FD10A6A1088C0F3A3
:103D100008000C686060086918B9086A801C0862AD
:103D200009E0086A401C086205E00C6A601C086231
:103D300020780C686060C88C401E80B2C88458B976
:103D40000868C06820F080000C68E0600868C068FF
:103D500040F040000C68E060002010BD0220FCE74D
:103D600010B50024FEF7BAFD0D48FEF701FA00BFBA
:103D700001E0641C00BF0A48FEF7F6F90128F8D1FB
:103D800000BF002401E0641C00BF01220549044873
:103D9000FEF7E6FA0028F6D100BFFEF7B1FD10BD30
:103DA000500D00201600002000BFFEE798B922B198
:103DB000012A06D0022A0CD107E0114B1B68996337
:103DC00008E0104B1B68596304E00F4B1B68D96374
:103DD00000E000BF13E022B1012A06D0022A0CD174
:103DE00007E0094B1B68596308E0064B1B68D96361
:103DF00004E0054B1B68D96300E000BF00BF7047BB
:103E0000CC0D0020440E0020080E002098B922B1ED
:103E1000012A06D0022A0CD107E0114B1B68D96396
:103E200008E0104B1B68996304E00F4B1B68196492
:103E300000E000BF13E022B1012A06D0022A0CD113
:103E400007E0094B1B68996308E0064B1B6819647F
:103E500004E0054B1B68196400E000BF00BF704719
:103E6000CC0D0020440E0020080E002000BF70473B
:103E70002DE9FC5F04468A464FF0000B00200190BC
:103E800081460090207D01280DD1504600F05DFB59
:103E900007464FF033322F4B00F06EFB054600F023
:103EA00023FB00900BE0504600F04FFB054600223C
:103EB000294B00F061FB074600F016FB00905046CE
:103EC00000F00EFD0546E16800F080FCE06023494B
:103ED000E06800F09CFD01D22048E0602049E068E5
:103EE00000F016FD01D21E48E060E06800F042FCE0
:103EF00005461C4A1C4B00F03FFB074600F0F4FA55
:103F00008346002000F0ECFC0190C4F810A0594654
:103F1000009800F05BFC0646019900F057FC05464E
:103F200000F0C2FC8146B9F1640F01DD4FF0640975
:103F300019F1640F01DA6FF06309B9F1000F01DACA
:103F4000C9F10009494609A0FCF7BEF94846BDE899
:103F5000FC9F00003333F33F0000F83F0000C842ED
:103F60000000C8C29A9999999999A93F6F75747080
:103F7000776D3A25640D0A0070B504460420FDF7FC
:103F80009DFC0C48046025464FF47A70454301209F
:103F9000094908804FF0E020006940F002004FF02E
:103FA000E021086108464561006940F001000861B0
:103FB00070BD0000080000200C00002000BF054A72
:103FC000126802F04002002AF9D0C2B2014B1B1D58
:103FD0001A6070470038014010B500200849086099
:103FE00048608860C860086118220648FCF710FA2B
:103FF00000200549086048608860C860086110BDFD
:1040000018200020302000204820002000B585B076
:10401000FCF7BAFD4FF4E010FFF764FB4820FFF710
:10402000ABFFFEF729FA4FF4E13000F041FAFEF75A
:1040300063FA0CA0FCF748F9FEF720FC07200021EA
:1040400080220C4BCDE90132CDE903100A20034652
:10405000094A00900948FEF7EBFCFEF799FC0020A6
:1040600005B000BD7561727420696E6974206F6B54
:104070000D0A000088000020840200208141000811
:1040800010B5FFF719FB10BD10B5FCF72DFB18217B
:104090000A48FDF789FD4FF47A70084909684862BB
:1040A00018210748FDF780FD4FF47A70044909682C
:1040B0004862002002490968486210BD900D002046
:1040C000BC0E0020FFF7E0FF04E0FFF7D9FF14204B
:1040D000FEF7FAFEF9E7000030B50246002400239F
:1040E0004AB929B910480068406A1048006830BDD4
:1040F0000F480068FBE7012A13D179B90D48006821
:10410000436A0D480068181A0C4D2D6828440B4D61
:1041100028600948036028460068E8E70848006806
:10412000E5E70020E3E70000900D0020700000208C
:1041300068000020BC0E00207C00002074000020DD
:104140006C0000207047FFF7FDFF03E04FF496700E
:10415000FEF7BAFEFAE72DE9F04105460E46144691
:104160001F46012D05D1E1B23A463046FCF770FA00
:1041700004E0E1B23A463046FCF790FABDE8F0813F
:1041800030B585B00446002500BFFEF725FCFCF7DE
:1041900041F80546072000214FF40072104BCDE98D
:1041A0000310CDE90132009003460E4A0E48FEF797
:1041B0003FFC0720002180220C4BCDE90132CDE9E4
:1041C0000310062003460A4A00900A48FEF730FC16
:1041D0002846FCF723F80A20FEF71EFE05B030BD86
:1041E00088020020840A0020C5400008880A0020B8
:1041F000840C0020474100082DE9FC5F064600279B
:10420000B846B9460024A246A346002001900025E6
:10421000012E7DD10121FFF75FFF86490860012152
:104220000020FFF759FF8449086082494968824AA3
:104230005268881800EBD0714F107E480068A7EBD9
:1042400000087D480068A7EB00097A4800687A49B1
:104250000968441A201E01DB014600E0414204299E
:1042600008DD204604EBD071A8EB610804EBD071A7
:1042700009EB610941466F48FFF7FAFD6D49886017
:1042800049466D48FFF7F4FD6B4988600846806831
:1042900000900846036867488268016867A0FCF7D9
:1042A00013F86448007D01281BD1624801230021D6
:1042B00082681846FFF74FFF5E4880680A2190FB2E
:1042C000F1F05C490968081A5A4908605A48806840
:1042D0000A2190FBF1F058490968081A564908600C
:1042E000A6E054480123002182680846FFF733FF07
:1042F000504880680A2190FBF1F04E490968084453
:104300004C4908604C4880680A2190FBF1F000E0BD
:1043100005E04949096808444749086088E0002EDB
:10432000DED100210120FFF7D7FE514908600021AE
:104330000120FFF7D1FE4F4908604D4949684D4AB9
:104340005268881800EBD0714FEA610A484800684B
:10435000AAEB000B47480068AAEB00000190444814
:10436000006844490968451A281E01DB014600E03F
:10437000414204290ADD284605EBD071ABEB610B05
:1043800005EBD0714A100199114401915946384802
:10439000FFF76EFD3649886036480199FFF768FDE2
:1043A00034498860084680680090084603683048B1
:1043B0008268016830A0FBF787FF2D48007D012847
:1043C0001BD12B480023012182680846FFF7C3FE5A
:1043D000274880680A2190FBF1F025490968081AEE
:1043E00023490860234880680A2190FBF1F02149A5
:1043F0000968081A1F4908601AE01D4800230121B6
:1044000082681846FFF7A7FE194880680A2190FBCA
:10441000F1F0174909680844154908601548806893
:104420000A2190FBF1F0134909680844114908601A
:10443000BDE8FC9F18200020302000204C656674E9
:104440003A20506F733D256C642C20537065656471
:104450003D2564207C2052696768743A20506F7350
:104460003D256C642C2053706565643D25640A000D
:104470004820002060200020534A204C6566743A92
:1044800020506F733D256C642C2053706565643D2E
:104490002564207C2052696768743A20506F733D10
:1044A000256C642C2053706565643D25640A00000A
:1044B00010B5044609480A490860084644600021CE
:1044C0008160C160016181610C214161FDF7BDFE28
:1044D000012204490248FDF743FF10BD00380140A6
:1044E000500D00201600002021F00042A2F1605281
:1044F000B2F5801F01F0004328BFD2F17F6C0BD9C9
:104500005FEA001C43EAC20242EB507018BF7047DA
:1045100028BF20F001007047B2F5801FBCBF1846CD
:1045200070474FEA410C1CF5001F02D2084600F00C
:1045300069BA70B500F0CAF800000089FFF7F6BF4D
:104540004FF00040A0F58000704710F0004248BFD7
:104550004042B0FA80F310FA03F10AD0C3F11D0310
:1045600003F580634FEA415002EB035202EBD12185
:1045700070474FF000007047DFF848C170B51CEA83
:10458000111E1EBF1CEA13159EEA0C0F95EA0C0FB4
:1045900000F06F8081EA030423EA4C134EEAD47ED4
:1045A00021EA4C1141F4801143F48013AE44A1FB85
:1045B000024CA0FB0365AEF17F7E361955EB0C056E
:1045C000A1FB034C4CF10003A0FB021C16EB0C06F4
:1045D000654153F10003094218BF46F0010613F488
:1045E000007F0BD14FEA03314FEA0530340341EA33
:1045F000155140EA16506FF003020AE04FEAC3215A
:104600004FEAC520F40241EA555140EA56506FF096
:10461000020202EB2E4201EB025585EACE710AD06E
:104620005FEA440C18BF24F0004450F1000041F14F
:10463000000120EAD47040F2FE7C624500D270BDD9
:10464000A84214BF4FF080444FF04044002E08BFF2
:104650000024BEF1806FA8BFA1F1C041BDE8704049
:1046600080F282804FF0000001F1C04101F0004172
:1046700070479EEA0C0F0CEA131518BF95EA0C0F51
:1046800006D04FF0000081EA030E0EF0004170BD2D
:1046900000F01CF88900013E00F007B800F009B8EE
:1046A0004FEA430C5FEA5C5C08D081EA030100F04A
:1046B0005BB84FEA410C5FEA5C5CF6D14FF000005A
:1046C000014970470000FF070000F87F0EF1020E5D
:1046D0002EF0030E5EF8046B364205D4012A43EB3C
:1046E000030515F5001F12D8012841EB010C1CF53C
:1046F000001F0CD80ED14FEAD17C15F5001F0CEB32
:104700004C0C0CF1020C08BF4CEBD37C04E04FF0D6
:10471000080C01E04FEAD37C0CEB4C0526FA05F6B9
:1047200006F00706B6F1040C06D20EEB860CBDE8C7
:1047300070404CF0010C6047DFE80CF0090B0202FE
:104740004FF000414FF00000A1F5002170BD194667
:104750001046012851EB010418BFD4F5001484BFA2
:10476000002001F0004170BD0808A0F500114FEADB
:104770003101704743004FEAD30C4FEA3C0C4340F1
:104780001FBF40070CF1605113F0FE4F70471CF043
:10479000006F03D100200CF0004170470CF0004383
:1047A00043EA507010B540EACC0000F0E5F800BFD5
:1047B000000000924FEA0001FFF7D6BF4FF0004122
:1047C0004FF00000A1F500217047000090EA010FB2
:1047D00048BF81F0004100F15281421A3CBF801A6B
:1047E00089184FEAD0524FF07F4C1CEA410FA2EBE0
:1047F000D15318BF9CEA026F00F03B804FF0004C91
:104800004CEA00204CEA012121FA03FC10EB0C0CCD
:104810001ED202F1FF325FEA1C2040EBC25038BFCB
:1048200070471CF07F0F4FEA400C18BFBCF17F4F60
:1048300038BF7047C3F12003994008BF20F0010042
:10484000BCF17F4F38BF7047A0F1C04000F0DAB82C
:104850004FEA3C00000A40EBC25028BF1CF0FF0F9B
:104860004FEA400CE6D018BFBCF17F4F38BF70470D
:10487000EAE79CEA026F05D010EA5C0F08BF00F07F
:104880000040704710B500F077F800BF64FBBE3EF3
:10489000401058BFC0F14040491058BFC1F14041DD
:1048A0008142EFF30080704741000B0ED3F19E026E
:1048B00008D950F400034FEA032323FA02F048BF5B
:1048C0004042704710B500F057F800BF499224806D
:1048D000002070476FF0004282EA2000704700001D
:1048E00010F0004148BF4042B0FA80F310FA03F2E2
:1048F000C3F19D030BD051EAC35101EB12205306C3
:1049000038BF704700F1010008BF20F00100704778
:1049100050EA010C00F113801CF5000F58BFBCF5E4
:10492000000F01D48842704707D710F5000F58BF19
:1049300011F5000F15D488427047894270471CF565
:10494000000F04D5BCF5000FF7D5814270474FF03A
:10495000807C1CEB400F38BF1CEB410F01D2814221
:10496000704710B500F008F8922449004FF000504D
:104970004FF08051FFF78CBF0EF1020E2EF0030EA8
:104980005EF8044B244204D44FEA4102B2F17F4F57
:1049900011D84FEA4003B3F17F4F0CD80ED14FEA44
:1049A000D07CB2F17F4F0CEB4C0C0CF1020C08BF29
:1049B0004CEBD17C04E04FF0080C01E04FEAD17CD5
:1049C0000CEB4C0324FA03F404F00704B4F1040CD8
:1049D00006D20EEB840CBDE810404CF0010C604791
:1049E000DFE80CF0070802024FF00040A0F580005D
:1049F00010BD0846420018BFD2F1807288BF00F097
:104A0000004010BDFF2141EAD050C005704751EA77
:104A1000000C00F113801CF5000F58BFBCF5000F0F
:104A200001D48142704707D711F5000F58BF10F528
:104A3000000F15D481427047894270471CF5000F62
:104A400004D5BCF5000FF7D5884270474FF0807C45
:104A50001CEB410F38BF1CEB400F01D2884270475E
:104A600080EA010081EA000180EA0100FFF779BFD6
:104A700090EA010F48BF81F000413FF5AEAE421A07
:104A800004D882F00042A0EB020011444FEAD05259
:104A90004FF07F4C1CEA410FA2EBD15318BF9CEAA8
:104AA000026F4AD04FF0004C4CEA00204CEA012142
:104AB00021FA03FCB0EB0C0C0FD412F0FE0F36D031
:104AC0005FEA4C001DD5001240EBC25038BF704762
:104AD0001CF03F0F18BF70470BE0A2F101025FEA24
:104AE0001C2040EBC25038BF70471CF07F0F18BF2E
:104AF0007047C3F12003994014BF401E20F001000D
:104B0000704780084FEA122308BF7047B0FA80FC54
:104B1000A2EB0C02CCF1280C60FA0CF093EA122FF5
:104B200004BF00EBC25070474FEAC3707047130ACE
:104B30005FEADC1008BF7047F6E79CEA026F04D01A
:104B400010EA5C0F08BF0020704710B5FFF714FF94
:104B500040DFF63E81F0004070470000000000009A
:104B6000000001020304060708090000000001021A
:104B70000304000001000200010003000100020024
:104B80000100040001000200010003000100020016
:104B90000100050001000200010003000100020005
:104BA00001000400010002000100030001000200F6
:104BB00001000600010002000100030001000200E4
:104BC00001000400010002000100030001000200D6
:104BD00001000500010002000100030001000200C5
:104BE00001000400010002000100030001000200B6
:104BF00001000700010002000100030001000200A3
:104C00000100040001000200010003000100020095
:104C10000100050001000200010003000100020084
:104C20000100040001000200010003000100020075
:104C30000100060001000200010003000100020063
:104C40000100040001000200010003000100020055
:104C50000100050001000200010003000100020044
:104C60000100040001000200010003000100020035
:104C700001000000944C00080000002088000000A3
:104C80006C0100081C4D0008880000205026000020
:104C90008801000800A24A04000000000000000093
:104CA0000000000000000000000000000000000004
:104CB00000000000000000000000000000000000F4
:104CC00000000000000000000000000000000000E4
:104CD00000000000000000000000000000000000D4
:104CE00000000000000000000000000000000000C4
:104CF00000000000000000000000000000000000B4
:104D000000000000000000000000000000000000A3
:0C4D100000000000000000000000000097
:0400000508000131BD
:00000001FF
